:020000040800F2
:100000000028002089180008991700089F17000889
:10001000A5170008AB170008B11700080000000082
:10002000000000000000000000000000B7170008FA
:10003000C317000800000000CF170008DB170008F6
:10004000D1180008D1180008D1180008D1180008EC
:10005000D1180008D1180008D1180008D1180008DC
:10006000D1180008D1180008D1180008D1180008CC
:10007000D1180008D1180008D1180008D1180008BC
:10008000D1180008D1180008D1180008D1180008AC
:10009000D1180008D1180008D1180008D11800089C
:1000A000D1180008D1180008D1180008D11800088C
:1000B000E9170008D118000800000000D118000856
:1000C000D11800080000000000000000D11800084E
:1000D00000000000FD170008D11800080000000013
:1000E000D1180008D1180008D1180008000000003D
:1000F0000000000000000000000000000000000000
:0C01000000000000000000005FF808F1A3
:10010C0010B5054C237833B9044B13B10448AFF345
:10011C0000800123237010BDB400002000000000FB
:10012C00D045000808B5034B1BB103490348AFF396
:10013C00008008BD00000000B8000020D045000879
:10014C00034613F8012B002AFBD1181A013870470B
:10015C0080B483B000AF7860094A7B6852F82330D2
:10016C00012B06D1064A7B68002142F8231001239B
:10017C0000E0002318460C37BD4680BC704700BF1A
:10018C00D000002080B483B000AF7860044A7B6854
:10019C00012142F8231000BF0C37BD4680BC7047CC
:1001AC00D000002080B582B000AF78607B68002B57
:1001BC0006D14FF400510F4801F022FF034614E022
:1001CC007B68012B06D14FF480410A4801F018FFDF
:1001DC0003460AE07B68022B06D14FF40041054828
:1001EC0001F00EFF034600E0002318460837BD4619
:1001FC0080BD00BF0010014080B582B000AF00236D
:10020C007B605CE0324A7B6852F8232031497B6882
:10021C0041F82320304A7B6852F823202C497B6814
:10022C0041F823207868FFF7BDFF034619462A4A98
:10023C007B6842F82310274A7B6852F82320244914
:10024C007B6851F823309A4236D1214A7B6852F8A8
:10025C00232021497B6851F823309A422CD11F4A24
:10026C007B6852F823201C497B6851F823309A4252
:10027C0014D0194A7B6852F8232018497B6841F83E
:10028C002320164A7B6852F82330002B14D1144BD0
:10029C00C8221A607868FFF775FF0DE0104B1B68D9
:1002AC00013B0F4A13600E4B1B68002B04D10B4A09
:1002BC007B68012142F823107B6801337B607B68EB
:1002CC00022B9FDD00BF00BF0837BD4680BD00BFBD
:1002DC000C0000200000002018000020240000204A
:1002EC003000002080B400AF4A4B1B685A3B042BF3
:1002FC0000F2828001A252F823F000BF1D03000817
:10030C0039030008670300089F030008CD030008A9
:10031C00414B1B68013B414A1360414B1B68013B3D
:10032C00404A13603B4B5B221A606EE03B4B1B68F0
:10033C00013B3A4A13603B4B1B68013B394A136043
:10034C00384B1B68002B59DA324B5C221A60364B47
:10035C001B68013B354A136050E0304B1B68013B76
:10036C002E4A1360314B1B68013B304A13602F4BF4
:10037C001B68002B44DA274B5D221A60264B1B6846
:10038C00013B264A1360264B1B68013B254A136030
:10039C0036E0224B1B68013B204A1360214B1B6843
:1003AC00013B204A13601F4B1B68002B2ADA194BA8
:1003BC005E221A601C4B1B68013B1C4A136021E037
:1003CC00164B1B68013B154A1360184B1B68013B0D
:1003DC00164A1360154B1B68002B15DA0D4B5B226C
:1003EC001A600D4B1B68013B0C4A13600C4B1B68CD
:1003FC00013B0C4A136007E000BF06E000BF04E0BD
:10040C0000BF02E000BF00E000BF00BFBD4680BCE3
:10041C00704700BF3400002038000020E0000020AE
:10042C0040000020E80000203C000020E4000020F8
:10043C0080B400AF114B1B68002B07DD104B1B6801
:10044C00002B03DD0F4B1B68002B08DC0B4B05222C
:10045C001A600B4B02221A600A4B03221A60094BDA
:10046C001A68074B1B681344044A1360064B5A2244
:10047C001A6000BFBD4680BC704700BF380000202A
:10048C003C000020400000203400002080B500AF6C
:10049C000020FFF75DFE0346012B19D10D4B1B68A5
:1004AC00142B03D10B4B15221A6011E0094B1B685E
:1004BC00152B03D1074B16221A6009E0054B1B685C
:1004CC00162B02D1FFF7B4FF02E0024B17221A6081
:1004DC0000BF80BD3400002080B500AF0120FFF7C5
:1004EC0037FE0346012B26D1144B1B68142B08D165
:1004FC00134B1B68622B04DC114B1B680133104A35
:10050C0013600E4B1B68152B08D10E4B1B68622B0E
:10051C0004DC0C4B1B6801330A4A1360074B1B6845
:10052C00162B08D1084B1B68622B04DC064B1B688E
:10053C000133054A136000BF80BD00BF34000020AA
:10054C000C010020040100200801002080B500AF40
:10055C000220FFF7FDFD0346012B19D10D4B1B6843
:10056C00142B04D10C4B1B680C4A136010E0094B84
:10057C001B68152B04D10A4B1B680A4A136007E051
:10058C00044B1B68162B03D1074B1B68074A1360DF
:10059C0000BF80BD340000200C010020380000207A
:1005AC00040100203C000020080100204000002035
:1005BC0080B500AFFFF76AFF164B1B68143B032B8B
:1005CC0025D801A252F823F0FD0500080706000803
:1005DC0011060008E50500080F4B00221A600F4BAE
:1005EC0000221A600E4B00221A600A4B14221A6069
:1005FC00FFF772FFFFF7AAFF0AE0FFF76DFFFFF7A7
:10060C00A5FF05E0FFF768FFFFF7A0FF00E000BFC4
:10061C0000BF80BD340000200C010020040100202C
:10062C000801002080B582B000AF78607868FFF7D1
:10063C0087FD03469AB20A237968034802F072FDDB
:10064C0000BF0837BD4680BD1001002080B500AF4B
:10065C0001F03AF900F024F800F0D4F800F05CF85E
:10066C0000F0A6F80A4802F075F964220021094846
:10067C0000F096FE0A220121074800F091FE192293
:10068C000221064800F08CFE00F076FFFCE700BF6C
:10069C0058010020F1020008BD050008AD12000849
:1006AC0080B590B000AF07F118032822002118463E
:1006BC0003F046FB3B1D00221A605A609A60DA6018
:1006CC001A610223BB610123BB621023FB6200236E
:1006DC007B6307F11803184601F0DEFC0346002B80
:1006EC0001D000F00DF90F237B600023BB600023C9
:1006FC00FB6000233B6100237B613B1D00211846FE
:10070C0001F04AFF0346002B01D000F0F9F800BFBE
:10071C004037BD4680BD000080B586B000AF07F104
:10072C00080300221A605A609A60DA603B46002285
:10073C001A605A601D4B4FF080421A601B4B41F6F9
:10074C003F725A60194B00229A60184B0A22DA60E9
:10075C00164B00221A61154B00229A61134802F0C5
:10076C00A9F80346002B01D000F0CAF84FF48053CF
:10077C00BB6007F1080319460C4802F03FFA034628
:10078C00002B01D000F0BCF800233B6000237B6001
:10079C003B461946054802F00BFC0346002B01D0E2
:1007AC0000F0AEF800BF1837BD4680BD58010020E0
:1007BC0080B500AF114B124A1A60104B4FF4E13266
:1007CC005A600E4B00229A600C4B0022DA600B4BE5
:1007DC0000221A61094B0C225A61084B00229A61C3
:1007EC00064B0022DA61054802F04CFC0346002B54
:1007FC0001D000F085F800BF80BD00BF10010020C3
:10080C000038014080B588B000AF07F1100300221A
:10081C001A605A609A60DA602F4B9B692E4A43F03B
:10082C00100393612C4B9B6903F01003FB60FB6876
:10083C00294B9B69284A43F004039361264B9B691F
:10084C0003F00403BB60BB68234B9B69224A43F053
:10085C0008039361204B9B6903F008037B607B6862
:10086C00002241F6FE111D4801F0E1FB002243F687
:10087C00FF711B4801F0DBFB4FF460433B6100232D
:10088C007B610123BB6107F110031946154801F088
:10089C003DFA41F6FE133B6101237B610023BB61F2
:1008AC000223FB6107F1100319460C4801F02EFAE4
:1008BC0043F6FF733B6101237B610023BB61022381
:1008CC00FB6107F110031946054801F01FFA00BF40
:1008DC002037BD4680BD00BF00100240000801401B
:1008EC00000C01400010014080B582B000AF786070
:1008FC0000F084FEFFF780FC00BF0837BD4680BDCA
:10090C0080B400AF72B600BFFEE7000080B500AF48
:10091C00012202210E4801F08AFB012210210C4811
:10092C0001F085FB01220421094801F080FB012222
:10093C002021074801F07BFB01224021044801F0F3
:10094C0076FB01220821024801F071FB00BF80BD3B
:10095C000008014080B582B000AF78607B68002B46
:10096C0023D100220121C24801F061FB00220221A7
:10097C00BF4801F05CFB00220421BD4801F057FB8D
:10098C0000220821BA4801F052FB00221021B8487D
:10099C0001F04DFB00222021B54801F048FB01225B
:1009AC004021B34801F043FB5DE17B68012B23D16F
:1009BC0001220121AE4801F03AFB00220221AC4891
:1009CC0001F035FB00220421A94801F030FB012283
:1009DC000821A74801F02BFB01221021A44801F0AB
:1009EC0026FB01222021A24801F021FB01224021FB
:1009FC009F4801F01CFB36E17B68022B23D10022BF
:100A0C0001219B4801F013FB00220221984801F0C0
:100A1C000EFB01220421964801F009FB002208215B
:100A2C00934801F004FB00221021914801F0FFFAD9
:100A3C00012220218E4801F0FAFA002240218C4834
:100A4C0001F0F5FA0FE17B68032B23D10022012181
:100A5C00874801F0ECFA00220221854801F0E7FA00
:100A6C0000220421824801F0E2FA00220821804889
:100A7C0001F0DDFA012210217D4801F0D8FA0122A3
:100A8C0020217B4801F0D3FA00224021784801F064
:100A9C00CEFAE8E07B68042B23D1012201217448B3
:100AAC0001F0C5FA00220221714801F0C0FA0022BF
:100ABC0004216F4801F0BBFA012208216C4801F0B7
:100ACC00B6FA012210216A4801F0B1FA0022202165
:100ADC00674801F0ACFA00224021654801F0A7FA02
:100AEC00C1E07B68052B23D100220121604801F075
:100AFC009EFA012202215E4801F099FA002204219B
:100B0C005B4801F094FA00220821594801F08FFA51
:100B1C0001221021564801F08AFA00222021544863
:100B2C0001F085FA00224021514801F080FA9AE048
:100B3C007B68062B23D1002201214D4801F077FA66
:100B4C00012202214A4801F072FA0022042148488D
:100B5C0001F06DFA00220821454801F068FA0022E4
:100B6C001021434801F063FA00222021404801F093
:100B7C005EFA002240213E4801F059FA73E07B688E
:100B8C00072B23D100220121394801F050FA002211
:100B9C000221374801F04BFA00220421344801F0BD
:100BAC0046FA01220821324801F041FA01221021B3
:100BBC002F4801F03CFA012220212D4801F037FA90
:100BCC00012240212A4801F032FA4CE07B68082BC4
:100BDC0023D100220121264801F029FA002202210A
:100BEC00234801F024FA00220421214801F01FFAC5
:100BFC00002208211E4801F01AFA002210211C487C
:100C0C0001F015FA00222021194801F010FA0022F7
:100C1C004021174801F00BFA25E07B68092B22D103
:100C2C0000220121124801F002FA00220221104890
:100C3C0001F0FDF9002204210D4801F0F8F9002221
:100C4C0008210B4801F0F3F901221021084801F0AA
:100C5C00EEF900222021064801F0E9F9002240219A
:100C6C00034801F0E4F900BF0837BD4680BD00BF62
:100C7C00000C014080B582B000AF78607B68002B1F
:100C8C0029D100228021C84801F0D1F900224FF46B
:100C9C008071C54801F0CBF900224FF40071C248B5
:100CAC0001F0C5F900224FF48061BF4801F0BFF993
:100CBC0000224FF40061BC4801F0B9F900224FF456
:100CCC008051B94801F0B3F901224FF40051B648F4
:100CDC0001F0ADF996E17B68012B29D1012280212D
:100CEC00B14801F0A4F900224FF48071AE4801F034
:100CFC009EF900224FF40071AB4801F098F90122E3
:100D0C004FF48061A84801F092F901224FF4006180
:100D1C00A54801F08CF901224FF48051A24801F052
:100D2C0086F901224FF400519F4801F080F969E1E6
:100D3C007B68022B29D1002280219B4801F077F996
:100D4C0000224FF48071984801F071F901224FF4A0
:100D5C000071954801F06BF900224FF480619248C4
:100D6C0001F065F900224FF400618F4801F05FF942
:100D7C0001224FF480518C4801F059F900224FF4B4
:100D8C000051894801F053F93CE17B68032B29D1D0
:100D9C0000228021844801F04AF900224FF480712E
:100DAC00814801F044F900224FF400717E4801F0B3
:100DBC003EF900224FF480617B4801F038F90122A2
:100DCC004FF40061784801F032F901224FF4805160
:100DDC00754801F02CF900224FF40051724801F0D3
:100DEC0026F90FE17B68042B29D1012280216E4862
:100DFC0001F01DF900224FF480716B4801F017F9D6
:100E0C0000224FF40071684801F011F901224FF4EF
:100E1C008061654801F00BF901224FF400616248D2
:100E2C0001F005F900224FF480515F4801F0FFF802
:100E3C0000224FF400515C4801F0F9F8E2E07B68C5
:100E4C00052B29D100228021574801F0F0F801220E
:100E5C004FF48071544801F0EAF800224FF400710D
:100E6C00514801F0E4F800224FF480614E4801F043
:100E7C00DEF801224FF400614B4801F0D8F8002253
:100E8C004FF48051484801F0D2F800224FF4005141
:100E9C00454801F0CCF8B5E07B68062B29D100223F
:100EAC008021414801F0C3F801224FF480713E4883
:100EBC0001F0BDF800224FF400713B4801F0B7F887
:100ECC0000224FF48061384801F0B1F800224FF451
:100EDC000061354801F0ABF800224FF480513248E4
:100EEC0001F0A5F800224FF400512F4801F09FF8B3
:100EFC0088E07B68072B29D1002280212A4801F049
:100F0C0096F800224FF48071274801F090F80022E7
:100F1C004FF40071244801F08AF801224FF48061EB
:100F2C00214801F084F801224FF400611E4801F0C1
:100F3C007EF801224FF480511B4801F078F8012211
:100F4C004FF40051184801F072F85BE07B68082BF5
:100F5C002CD100228021144801F069F800224FF4B2
:100F6C008071114801F063F800224FF400710E48B3
:100F7C0001F05DF800224FF480610B4801F057F846
:100F8C0000224FF40061084801F051F800224FF4A0
:100F9C008051054801F04BF800224FF400510248F3
:100FAC0001F045F82EE000BF000C01407B68092BD6
:100FBC0028D100228021154801F039F800224FF485
:100FCC008071124801F033F800224FF400710F4881
:100FDC0001F02DF800224FF480610C4801F027F845
:100FEC0001224FF40061094801F021F800224FF46E
:100FFC008051064801F01BF800224FF400510348C1
:10100C0001F015F800BF0837BD4680BD000C01404B
:10101C0080B500AF00220221074801F008F8012238
:10102C000421054801F003F801220821024800F0D0
:10103C00FEFF00BF80BD00BF0008014080B500AFBF
:10104C0001220221074800F0F2FF0022042105488A
:10105C0000F0EDFF01220821024800F0E8FF00BF7C
:10106C0080BD00BF0008014080B500AF0122022105
:10107C00074800F0DCFF01220421054800F0D7FFEF
:10108C0000220821024800F0D2FF00BF80BD00BF43
:10109C000008014080B500AF00221021074800F085
:1010AC00C6FF01222021054800F0C1FF012240218A
:1010BC00024800F0BCFF00BF80BD00BF000801402B
:1010CC0080B500AF01221021074800F0B0FF0022CC
:1010DC002021054800F0ABFF01224021024800F01E
:1010EC00A6FF00BF80BD00BF0008014080B500AF67
:1010FC0001221021074800F09AFF01222021054807
:10110C0000F095FF00224021024800F090FF00BF44
:10111C0080BD00BF0008014080B500AF084B1B68C4
:10112C00002B04D1FFF774FFFFF7B4FF05E0044B6D
:10113C001B68012B01D1FFF7E9FB00BF80BD00BF8D
:10114C00EC00002080B500AF084B1B68002B04D1CD
:10115C00FFF774FFFFF7B4FF05E0044B1B68012B8E
:10116C0001D1FFF7D3FB00BF80BD00BFEC00002016
:10117C0080B500AF084B1B68002B04D1FFF774FF40
:10118C00FFF7B4FF05E0044B1B68012B01D1FFF7FF
:10119C00BDFB00BF80BD00BFEC00002080B586B059
:1011AC0000AF786039607B683A4A82FB0312921078
:1011BC00DB17D31A7B617A68364B83FB02139910C9
:1011CC00D317C91A0B469B000B445B00D31A3B6127
:1011DC003B68304A82FB03129210DB17D31AFB6078
:1011EC003A682C4B83FB02139910D317C91A0B4680
:1011FC009B000B445B00D31ABB60274B1B68002B76
:10120C0020D100228021254800F011FF01224FF44B
:10121C008071224800F00BFF00224FF400611F4840
:10122C0000F005FF01224FF480511C4800F0FFFE36
:10123C007869FFF78FFBF868FFF71CFD164B01224E
:10124C001A6023E0144B1B68012B1FD10122802153
:10125C00124800F0ECFE00224FF480710F4800F0B1
:10126C00E6FE01224FF400610C4800F0E0FE002283
:10127C004FF48051094800F0DAFE3869FFF76AFB39
:10128C00B868FFF7F7FC044B00221A6000BF183750
:10129C00BD4680BD67666666EC0000200008014014
:1012AC0080B500AF374B1B685E2B67DC5B2B08DA15
:1012BC00162B5BD0162B61DC142B45D0152B4CD088
:1012CC005CE05B3B032B59D801A252F823F000BF22
:1012DC00ED12000807130008211300083B13000847
:1012EC00FFF796FEFFF702FF274B1B68274A126891
:1012FC0011461846FFF752FF41E0FFF789FEFFF752
:10130C00DFFE214B1B68224A126811461846FFF774
:10131C0045FF34E0FFF7A8FEFFF7BCFE1B4B1B6834
:10132C00194A126811461846FFF738FF27E0FFF7F5
:10133C0085FEFFF7AFFE164B1B68134A1268114669
:10134C001846FFF72BFF1AE0FFF7E6FE114B1B6860
:10135C0019460120FFF722FF11E0FFF7F3FE0E4BB9
:10136C001B6819460220FFF719FF08E0FFF700FF82
:10137C000A4B1B6819460320FFF710FF00BF00BF84
:10138C0080BD00BF34000020E0000020E8000020F9
:10139C00E40000200C0100200401002008010020C2
:1013AC0080B588B000AFF860B9607A60142002F0A4
:1013BC00B7FC03463B613B69FA681A603A4B1B6801
:1013CC005A1C39490A603A6953603B69BA689A6099
:1013DC003B697A68DA603B6900221A61334B5B68BF
:1013EC001F2B01DD00235AE0304B5B68002B09D129
:1013FC002E4A3B6913602D4B5B6801332B4A5360BB
:10140C0000234CE0294B1B68FB610023BB613B694B
:10141C009A68FB699B68D31A7B610FE07A693B6918
:10142C009A60FB69BB61FB691B69FB61FB69002B63
:10143C0004D07A69FB699B68D31A7B617B69002BAA
:10144C0002DBFB69002BE9D1BB69002B0DD13B6999
:10145C00FA691A61FB699A683B699B68D21AFB6945
:10146C009A60124A3B69136013E0FB69002B03D1AD
:10147C00BB693A691A610CE0BB693A691A613B694C
:10148C00FA691A61FB699A683B699B68D21AFB6915
:10149C009A60064B5B680133044A5360002318467C
:1014AC002037BD4680BD00BFF4000020A001002005
:1014BC0080B584B000AF78602E4B5B68002B01D1F7
:1014CC00002353E02B4B1B68FB600023BB6004E044
:1014DC00FB68BB60FB681B69FB60FB685B687A6838
:1014EC009A4202D0FB68002BF2D1FB68002B01D191
:1014FC0000233BE0BB68002B14D1FB681B691D4A21
:10150C001360F86802F014FCFB681B69002B27D0F1
:10151C00FB681B699968FB689A68FB681B690A443D
:10152C009A601DE0FB681B69002B06D1F86802F07D
:10153C00FFFBBB6800221A6112E0FB681A69BB68EA
:10154C001A61FB681B699968FB689A68FB681B69E0
:10155C000A449A60FB6800221A61F86802F0E8FB02
:10156C00044B5B68013B034A536000231846103759
:10157C00BD4680BDA001002080B500AF26E01B4B0E
:10158C001B685A681A4B1B681A491B4802F096FCD8
:10159C001948FFF747F8154B1B681B689847134B06
:1015AC001B68DB68002B0BD0104B1B6818680F4BAB
:1015BC001B68D9680D4B1B68DB681A46FFF7F0FEF9
:1015CC000A4B1B685B681846FFF772FF074B1B68DA
:1015DC009B68002B03D1054B5B68002BCFDC0121F2
:1015EC00002000F03DFD00BF80BD00BFA001002029
:1015FC00F0000020E8450008A801002080B400AFEE
:10160C000B4B1B680A330A4A13600A4B5B68002BAE
:10161C0009D0084B1B689B68002B04D0054B1B683A
:10162C009A68013A9A6000BFBD4680BC704700BF03
:10163C00F0000020A001002080B485B000AF154B55
:10164C009B69144A43F001039361124B9B6903F0AD
:10165C000103BB60BB680F4BDB690E4A43F0805340
:10166C00D3610C4BDB6903F080537B607B680A4BC6
:10167C005B68FB60FB6823F0E063FB60FB6843F096
:10168C008063FB60044AFB68536000BF1437BD469F
:10169C0080BC7047001002400000014080B584B04F
:1016AC0000AF78607B681B68B3F1804F13D10C4B93
:1016BC00DB690B4A43F00103D361094BDB6903F08F
:1016CC000103FB60FB68002200211C2000F035FAAE
:1016DC001C2000F04EFA00BF1037BD4680BD00BF85
:1016EC000010024080B588B000AF786007F110039D
:1016FC0000221A605A609A60DA607B681B68204A84
:10170C00934239D11F4B9B691E4A43F4804393612A
:10171C001C4B9B6903F48043FB60FB68194B9B6972
:10172C00184A43F004039361164B9B6903F00403BE
:10173C00BB60BB684FF400733B6102237B610323E6
:10174C00FB6107F1100319460F4800F0DFFA4FF464
:10175C0080633B6100237B610023BB6107F11003B5
:10176C001946094800F0D2FA00220021252000F089
:10177C00E4F9252000F0FDF900BF2037BD4680BDFF
:10178C0000380140001002400008014080B400AF56
:10179C00FEE780B400AFFEE780B400AFFEE780B494
:1017AC0000AFFEE780B400AFFEE780B400AF00BF2F
:1017BC00BD4680BC704780B400AF00BFBD4680BC46
:1017CC00704780B400AF00BFBD4680BC704780B589
:1017DC0000AF00F0BFF800BF80BD000080B500AFC7
:1017EC00024801F003F900BF80BD00BF5801002082
:1017FC0080B500AF024801F019FD00BF80BD00BFED
:10180C001001002080B586B000AF7860144A154BEB
:10181C00D31A7B617B693B61134B1B68002B02D194
:10182C00114B124A1A60104B1A687B6813443A69C0
:10183C009A4207D202F04AFA03460C221A604FF081
:10184C00FF3309E0084B1B68FB60074B1A687B6889
:10185C001344054A1360FB6818461837BD4680BD13
:10186C000028002000040000F8000020F0010020F7
:10187C0080B400AF00BFBD4680BC7047FFF7F8FFD7
:10188C000B480C490C4A002302E0D458C4500433D2
:10189C00C4188C42F9D3094A094C002301E01360A7
:1018AC000432A242FBD302F017FAFEF7CFFE7047C8
:1018BC0000000020B40000207C460008B40000208A
:1018CC00F0010020FEE7000080B500AF084B1B685C
:1018DC00074A43F010031360032000F023F90F2094
:1018EC0000F008F8FFF7A8FE0023184680BD00BFE3
:1018FC000020024080B582B000AF7860124B1A68AD
:10190C00124B1B7819464FF47A73B3FBF1F3B2FB0D
:10191C00F3F3184600F03BF90346002B01D00123EA
:10192C000EE07B680F2B0AD8002279684FF0FF304D
:10193C0000F003F9064A7B681360002300E00123E2
:10194C0018460837BD4680BD440000204C000020DE
:10195C004800002080B400AF054B1B781A46054B9D
:10196C001B681344034A136000BFBD4680BC70471C
:10197C004C000020DC01002080B400AF024B1B683F
:10198C001846BD4680BC7047DC01002080B485B091
:10199C0000AF78607B6803F00703FB600C4BDB68DF
:1019AC00BB60BA684FF6FF031340BB60FB681A02BA
:1019BC00BB68134343F0BF6343F40033BB60044A7A
:1019CC00BB68D36000BF1437BD4680BC704700BFF6
:1019DC0000ED00E080B400AF044BDB681B0A03F0A1
:1019EC0007031846BD4680BC704700BF00ED00E001
:1019FC0080B483B000AF0346FB7197F90730002B1E
:101A0C000BDBFB7903F01F02064997F907305B09E2
:101A1C00012000FA02F241F8232000BF0C37BD462A
:101A2C0080BC704700E100E080B483B000AF034697
:101A3C003960FB7197F90730002B0ADB3B68DAB28F
:101A4C000C4997F907301201D2B20B4483F80023EA
:101A5C000AE03B68DAB20849FB7903F00F03043B58
:101A6C001201D2B20B441A7600BF0C37BD4680BCB3
:101A7C00704700BF00E100E000ED00E080B489B0E9
:101A8C0000AFF860B9607A60FB6803F00703FB6194
:101A9C00FB69C3F10703042B28BF0423BB61FB695B
:101AAC000433062B02D9FB69033B00E000237B6166
:101ABC004FF0FF32BB6902FA03F3DA43BB681A40FA
:101ACC007B699A404FF0FF317B6901FA03F3D943EC
:101ADC007B680B40134318462437BD4680BC7047C7
:101AEC0080B582B000AF78607B68013BB3F1807F3A
:101AFC0001D301230FE00A4A7B68013B53600F219D
:101B0C004FF0FF30FFF790FF054B00229A60044B1B
:101B1C0007221A60002318460837BD4680BD00BF57
:101B2C0010E000E080B582B000AF78607868FFF715
:101B3C002DFF00BF0837BD4680BD80B586B000AF15
:101B4C000346B9607A60FB7300237B61FFF742FFA9
:101B5C0078617A68B9687869FFF790FF024697F95F
:101B6C000F3011461846FFF75FFF00BF1837BD4610
:101B7C0080BD80B582B000AF0346FB7197F907308A
:101B8C001846FFF735FF00BF0837BD4680BD80B54E
:101B9C0082B000AF78607868FFF7A2FF0346184662
:101BAC000837BD4680BD80B485B000AF7860002397
:101BBC00FB737B6893F82130DBB2022B08D07B6877
:101BCC0004229A637B68002283F82020012320E002
:101BDC007B681B681A687B681B6822F00E021A600F
:101BEC007B681B681A687B681B6822F001021A600C
:101BFC007B681A6C7B68DB6B012101FA02F25A607C
:101C0C007B68012283F821207B68002283F8202046
:101C1C00FB7B18461437BD4680BC704780B584B03A
:101C2C0000AF78600023FB737B6893F82130DBB244
:101C3C00022B05D07B6804229A630123FB7351E0CD
:101C4C007B681B681A687B681B6822F00E021A609E
:101C5C007B681B681A687B681B6822F001021A609B
:101C6C007B681B68224A934229D07B681B68214AF7
:101C7C00934222D07B681B681F4A93421AD07B6820
:101C8C001B681E4A934212D07B681B681C4A934205
:101C9C000AD07B681B681B4A934202D14FF4801315
:101CAC000EE04FF080730BE04FF4803308E04FF4FC
:101CBC00805305E04FF4807302E0102300E0012311
:101CCC00114A53607B68012283F821207B68002233
:101CDC0083F820207B685B6B002B03D07B685B6BED
:101CEC0078689847FB7B18461037BD4680BD00BF0F
:101CFC00080002401C000240300002404400024038
:101D0C00580002406C0002400000024080B48BB0CE
:101D1C0000AF7860396000237B6200233B6248E1AE
:101D2C0001227B6A02FA03F3FB613B681B68FA69C8
:101D3C001340BB61BA69FB699A4240F037813B683A
:101D4C005B68A34A93425ED0A14A934275D8A14ADC
:101D5C00934258D09F4A93426FD89F4A934252D095
:101D6C009D4A934269D89D4A93424CD09B4A9342D8
:101D7C0063D89B4A934246D0994A93425DD8122B22
:101D8C002AD8122B59D801A252F823F0131E00089E
:101D9C00ED1D0008FF1D0008411E0008471E00082D
:101DAC00471E0008471E0008471E0008471E000873
:101DBC00471E0008471E0008471E0008471E000863
:101DCC00471E0008471E0008471E0008471E000853
:101DDC00F51D0008091E0008824A934213D02CE01E
:101DEC003B68DB683B6229E03B68DB6804333B62A1
:101DFC0024E03B68DB6808333B621FE03B68DB6830
:101E0C000C333B621AE03B689B68002B02D1042325
:101E1C003B6213E03B689B68012B05D108233B62B6
:101E2C007B68FA691A6109E008233B627B68FA69EE
:101E3C005A6103E000233B6200E000BFBB69FF2B4B
:101E4C0001D87B6801E07B6804337B61BB69FF2BA5
:101E5C0002D87B6A9B0002E07B6A083B9B003B61DB
:101E6C007B691A680F213B6901FA03F3DB431A40C3
:101E7C00396A3B6901FA03F31A437B691A603B68C0
:101E8C005B6803F08053002B00F09080564B9B69ED
:101E9C00554A43F001039361534B9B6903F00103D3
:101EAC00BB60BB68514A7B6A9B08023352F82330F3
:101EBC00FB607B6A03F003039B000F2202FA03F31F
:101ECC00DB43FA681340FB607B68494A93420DD0B0
:101EDC007B68484A934207D07B68474A934201D1BA
:101EEC00022304E0032302E0012300E000237A6ACA
:101EFC0002F0030292009340FA681343FB603B49E3
:101F0C007B6A9B080233FA6841F823203B685B68C4
:101F1C0003F48013002B06D0384B9A683749BB6901
:101F2C0013438B6006E0354B9A68BB69DB4333493E
:101F3C0013408B603B685B6803F40013002B06D0E6
:101F4C002E4BDA682D49BB691343CB6006E02B4B53
:101F5C00DA68BB69DB4329491340CB603B685B689B
:101F6C0003F40033002B06D0244B5A682349BB6979
:101F7C0013434B6006E0214B5A68BB69DB431F4996
:101F8C0013404B603B685B6803F48033002B06D036
:101F9C001A4B1A681949BB6913430B6006E0174BBF
:101FAC001A68BB69DB43154913400B607B6A01332C
:101FBC007B623B681A687B6A22FA03F3002B7FF47E
:101FCC00AFAE00BF00BF2C37BD4680BC704700BF12
:101FDC00000032100000311000002210000021100F
:101FEC00000012100000111000100240000001400F
:101FFC0000080140000C01400010014000040140A9
:10200C0080B485B000AF78600B467B807B689A68A3
:10201C007B881340002B02D00123FB7301E00023CB
:10202C00FB73FB7B18461437BD4680BC704780B4ED
:10203C0083B000AF78600B467B8013467B707B7857
:10204C00002B03D07A887B681A6103E07B881A0422
:10205C007B681A6100BF0C37BD4680BC704700001E
:10206C0080B483B000AF78600B46FB70094B1B69E2
:10207C00084A23F004031361FB78012B01D130BF14
:10208C0002E040BF20BF20BF00BF0C37BD4680BC64
:10209C00704700BF00ED00E080B586B000AF7860FF
:1020AC007B68002B01D101236CE27B681B6803F079
:1020BC000103002B00F08780924B5B6803F00C034C
:1020CC00042B0CD08F4B5B6803F00C03082B12D144
:1020DC008C4B5B6803F48033B3F5803F0BD1894B99
:1020EC001B6803F40033002B6CD07B685B68002BFF
:1020FC0068D1012346E27B685B68B3F5803F06D16B
:10210C00804B1B687F4A43F4803313602EE07B685E
:10211C005B68002B0CD17B4B1B687A4A23F4803311
:10212C001360784B1B68774A23F4802313601DE0FF
:10213C007B685B68B3F5A02F0CD1724B1B68714A9E
:10214C0043F4802313606F4B1B686E4A43F4803357
:10215C0013600BE06B4B1B686A4A23F480331360EB
:10216C00684B1B68674A23F4802313607B685B68A9
:10217C00002B13D0FFF700FC386108E0FFF7FCFBE5
:10218C0002463B69D31A642B01D90323FAE15D4B58
:10219C001B6803F40033002BF0D014E0FFF7ECFBCA
:1021AC00386108E0FFF7E8FB02463B69D31A642B61
:1021BC0001D90323E6E1534B1B6803F40033002BD6
:1021CC00F0D100E000BF7B681B6803F00203002B1A
:1021DC0063D04C4B5B6803F00C03002B0BD0494BCA
:1021EC005B6803F00C03082B1CD1464B5B6803F4B3
:1021FC008033002B16D1434B1B6803F00203002BDA
:10220C0005D07B681B69012B01D00123BAE13D4B42
:10221C001B6823F0F8027B685B69DB0039491343C8
:10222C000B603AE07B681B69002B20D0364B0122F7
:10223C001A60FFF7A1FB386108E0FFF79DFB02462F
:10224C003B69D31A022B01D903239BE12D4B1B684D
:10225C0003F00203002BF0D02A4B1B6823F0F8028A
:10226C007B685B69DB00274913430B6015E0264B49
:10227C0000221A60FFF780FB386108E0FFF77CFB57
:10228C0002463B69D31A022B01D903237AE11D4B79
:10229C001B6803F00203002BF0D17B681B6803F072
:1022AC000803002B3AD07B689B69002B19D0174B85
:1022BC0001221A60FFF760FB386108E0FFF75CFB56
:1022CC0002463B69D31A022B01D903235AE10D4B69
:1022DC005B6A03F00203002BF0D0012000F0CCFA73
:1022EC001CE00A4B00221A60FFF746FB38610FE036
:1022FC00FFF742FB02463B69D31A022B08D9032392
:10230C0040E100BF00100240000042428004424203
:10231C009E4B5B6A03F00203002BE9D17B681B68C0
:10232C0003F00403002B00F0A6800023FB75974BF1
:10233C00DB6903F08053002B0DD1944BDB69934A7E
:10234C0043F08053D361914BDB6903F08053BB6046
:10235C00BB680123FB758E4B1B6803F48073002B49
:10236C0018D18B4B1B688A4A43F480731360FFF7B8
:10237C0003FB386108E0FFF7FFFA02463B69D31A0A
:10238C00642B01D90323FDE0814B1B6803F480739C
:10239C00002BF0D07B68DB68012B06D17B4B1B6AD2
:1023AC007A4A43F0010313622DE07B68DB68002B53
:1023BC000CD1764B1B6A754A23F001031362734BE5
:1023CC001B6A724A23F0040313621CE07B68DB680F
:1023DC00052B0CD16D4B1B6A6C4A43F00403136242
:1023EC006A4B1B6A694A43F0010313620BE0674BAB
:1023FC001B6A664A23F001031362644B1B6A634A2F
:10240C0023F0040313627B68DB68002B15D0FFF705
:10241C00B3FA38610AE0FFF7AFFA02463B69D31A08
:10242C0041F28832934201D90323ABE0574B1B6A2C
:10243C0003F00203002BEED014E0FFF79DFA386195
:10244C000AE0FFF799FA02463B69D31A41F2883247
:10245C00934201D9032395E04C4B1B6A03F0020312
:10246C00002BEED1FB7D012B05D1484BDB69474A94
:10247C0023F08053D3617B68DB69002B00F08180F3
:10248C00424B5B6803F00C03082B61D07B68DB6963
:10249C00022B46D13F4B00221A60FFF76DFA3861D0
:1024AC0008E0FFF769FA02463B69D31A022B01D9FF
:1024BC00032367E0354B1B6803F00073002BF0D14E
:1024CC007B681B6AB3F5803F08D1304B5B6823F403
:1024DC0000327B689B682D4913434B602B4B5B6828
:1024EC0023F474127B68196A7B685B6A0B43274977
:1024FC0013434B60274B01221A60FFF73DFA3861FA
:10250C0008E0FFF739FA02463B69D31A022B01D9CE
:10251C00032337E01D4B1B6803F00073002BF0D036
:10252C002FE01C4B00221A60FFF726FA386108E0F6
:10253C00FFF722FA02463B69D31A022B01D9032377
:10254C0020E0124B1B6803F00073002BF0D118E055
:10255C007B68DB69012B01D1012313E00B4B5B681A
:10256C00FB60FB6803F480327B681B6A9A4206D1DD
:10257C00FB6803F470127B685B6A9A4201D00123FA
:10258C0000E0002318461837BD4680BD00100240FD
:10259C00007000406000424280B584B000AF7860AB
:1025AC0039607B68002B01D10123D0E06A4B1B689A
:1025BC0003F007033A689A4210D9674B1B6823F063
:1025CC00070265493B6813430B60634B1B6803F0C0
:1025DC0007033A689A4201D00123B8E07B681B6874
:1025EC0003F00203002B20D07B681B6803F004036C
:1025FC00002B05D0594B5B68584A43F4E063536099
:10260C007B681B6803F00803002B05D0534B5B68F9
:10261C00524A43F460535360504B5B6823F0F00212
:10262C007B689B684D4913434B607B681B6803F0C8
:10263C000103002B40D07B685B68012B07D1474B13
:10264C001B6803F40033002B15D101237FE07B685A
:10265C005B68022B07D1414B1B6803F00073002B06
:10266C0009D1012373E03D4B1B6803F00203002BDF
:10267C0001D101236BE0394B5B6823F003027B68CB
:10268C005B68364913434B60FFF776F9F8600AE054
:10269C00FFF772F90246FB68D31A41F28832934273
:1026AC0001D9032353E02D4B5B6803F00C027B68CC
:1026BC005B689B009A42EBD1274B1B6803F0070326
:1026CC003A689A4210D2244B1B6823F00702224925
:1026DC003B6813430B60204B1B6803F007033A68FD
:1026EC009A4201D0012332E07B681B6803F004039B
:1026FC00002B08D0194B5B6823F4E0627B68DB6825
:10270C00164913434B607B681B6803F00803002BCE
:10271C0009D0124B5B6823F460527B681B69DB00A9
:10272C000E4913434B6000F021F802460B4B5B68DB
:10273C001B0903F00F030A49CB5C22FA03F3094A85
:10274C001360094B1B681846FFF7D4F80023184692
:10275C001037BD4680BD00BF002002400010024073
:10276C0014460008440000204800002080B487B0C4
:10277C0000AF0023FB600023BB6000237B610023C0
:10278C007B6000233B611E4B5B68FB60FB6803F0C6
:10279C000C03042B02D0082B03D027E0194B3B6110
:1027AC0027E0FB689B0C03F00F03174AD35C7B609C
:1027BC00FB6803F48033002B10D0114B5B685B0C6F
:1027CC0003F00103114AD35CBB607B680D4A02FB2A
:1027DC0003F2BB68B2FBF3F37B6104E07B680C4A49
:1027EC0002FB03F37B617B693B6102E0054B3B61C0
:1027FC0000BF3B6918461C37BD4680BC704700BF04
:10280C000010024000127A002C4600083C460008DA
:10281C0000093D0080B400AF024B1B681846BD4652
:10282C0080BC70474400002080B500AFFFF7F2FF7A
:10283C000246054B5B681B0A03F007030349CB5C9C
:10284C0022FA03F3184680BD00100240244600080B
:10285C0080B500AFFFF7DEFF0246054B5B68DB0A75
:10286C0003F007030349CB5C22FA03F3184680BD3F
:10287C00001002402446000880B485B000AF786098
:10288C000A4B1B680A4AA2FB03235B0A7A6802FB09
:10289C0003F3FB6000BFFB685A1EFA60002BF9D1F2
:1028AC0000BF00BF1437BD4680BC704744000020F9
:1028BC00D34D621080B582B000AF78607B68002B7E
:1028CC0001D1012341E07B6893F83D30DBB2002B52
:1028DC0006D17B68002283F83C207868FEF7DEFE88
:1028EC007B68022283F83D207B681A687B6804337E
:1028FC001946104600F06EFA7B68012283F84620D8
:10290C007B68012283F83E207B68012283F83F20FC
:10291C007B68012283F840207B68012283F84120E8
:10292C007B68012283F842207B68012283F84320D4
:10293C007B68012283F844207B68012283F84520C0
:10294C007B68012283F83D20002318460837BD46DA
:10295C0080BD000080B485B000AF78607B6893F8D0
:10296C003D30DBB2012B01D0012335E07B68022224
:10297C0083F83D207B681B68DA687B681B6842F033
:10298C000102DA607B681B68164A934209D07B68A7
:10299C001B68B3F1804F04D07B681B68124A9342CA
:1029AC0011D17B681B689B6803F00703FB60FB6815
:1029BC00062B10D07B681B681A687B681B6842F07A
:1029CC0001021A6007E07B681B681A687B681B6849
:1029DC0042F001021A60002318461437BD4680BC31
:1029EC00704700BF002C01400004004080B582B04D
:1029FC0000AF78607B681B681B6903F00203022B35
:102A0C0022D17B681B68DB6803F00203022B1BD10D
:102A1C007B681B686FF002021A617B6801221A77CF
:102A2C007B681B689B6903F00303002B03D0786859
:102A3C0000F0B4F905E0786800F0A7F9786800F0C8
:102A4C00B6F97B6800221A777B681B681B6903F058
:102A5C000403042B22D17B681B68DB6803F004039E
:102A6C00042B1BD17B681B686FF004021A617B6816
:102A7C0002221A777B681B689B6903F44073002B56
:102A8C0003D0786800F08AF905E0786800F07DF9E9
:102A9C00786800F08CF97B6800221A777B681B68D9
:102AAC001B6903F00803082B22D17B681B68DB68C9
:102ABC0003F00803082B1BD17B681B686FF008021E
:102ACC001A617B6804221A777B681B68DB6903F048
:102ADC000303002B03D0786800F060F905E07868F8
:102AEC0000F053F9786800F062F97B6800221A77DD
:102AFC007B681B681B6903F01003102B22D17B68C9
:102B0C001B68DB6803F01003102B1BD17B681B6860
:102B1C006FF010021A617B6808221A777B681B68B9
:102B2C00DB6903F44073002B03D0786800F036F9AE
:102B3C0005E0786800F029F9786800F038F97B68CE
:102B4C0000221A777B681B681B6903F00103012BB9
:102B5C000ED17B681B68DB6803F00103012B07D1E6
:102B6C007B681B686FF001021A617868FDF7BCFE88
:102B7C007B681B681B6903F08003802B0ED17B687C
:102B8C001B68DB6803F08003802B07D17B681B6814
:102B9C006FF080021A61786800F06BFA7B681B6832
:102BAC001B6903F04003402B0ED17B681B68DB686C
:102BBC0003F04003402B07D17B681B686FF0400289
:102BCC001A61786800F0FCF87B681B681B6903F0DD
:102BDC002003202B0ED17B681B68DB6803F02003DD
:102BEC00202B07D17B681B686FF020021A61786874
:102BFC0000F036FA00BF0837BD4680BD80B584B002
:102C0C0000AF786039600023FB737B6893F83C302D
:102C1C00012B01D10223B4E07B68012283F83C2014
:102C2C007B68022283F83D207B681B689B68BB6035
:102C3C00BB6823F07703BB60BB6823F47F43BB60A6
:102C4C007B681B68BA689A603B681B68B3F5005FC9
:102C5C003ED0B3F5005F00F28780B3F5805F00F0E3
:102C6C008680B3F5805F7FD8702B1AD0702B7BD801
:102C7C00602B50D0602B77D8502B3CD0502B73D876
:102C8C00402B58D0402B6FD8302B64D0302B6BD8C6
:102C9C00202B60D0202B67D8002B5CD0102B5AD067
:102CAC0062E07B6818683B6899683B685A683B68C7
:102CBC00DB6800F05EF97B681B689B68BB60BB68D7
:102CCC0043F07703BB607B681B68BA689A604FE07F
:102CDC007B6818683B6899683B685A683B68DB6896
:102CEC0000F047F97B681B689A687B681B6842F4A4
:102CFC0080429A603CE07B6818683B6859683B6886
:102D0C00DB681A4600F0BEF87B681B685021184639
:102D1C0000F015F92CE07B6818683B6859683B6833
:102D2C00DB681A4600F0DCF87B681B6860211846EB
:102D3C0000F005F91CE07B6818683B6859683B6833
:102D4C00DB681A4600F09EF87B681B684021184629
:102D5C0000F0F5F80CE07B681A683B681B681946B4
:102D6C00104600F0ECF803E00123FB7300E000BF19
:102D7C007B68012283F83D207B68002283F83C208D
:102D8C00FB7B18461037BD4680BD80B483B000AFC6
:102D9C00786000BF0C37BD4680BC704780B483B0F0
:102DAC0000AF786000BF0C37BD4680BC704780B464
:102DBC0083B000AF786000BF0C37BD4680BC704755
:102DCC0080B483B000AF786000BF0C37BD4680BCC8
:102DDC007047000080B485B000AF786039607B68C4
:102DEC001B68FB607B68254A934207D07B68B3F174
:102DFC00804F03D07B68224A934208D1FB6823F0B2
:102E0C007003FB603B685B68FA681343FB607B688C
:102E1C001A4A934207D07B68B3F1804F03D07B688A
:102E2C00174A934208D1FB6823F44073FB603B685C
:102E3C00DB68FA681343FB60FB6823F080023B6895
:102E4C005B691343FB607B68FA681A603B689A689D
:102E5C007B68DA623B681A687B689A627B68074A0F
:102E6C00934203D13B681A697B681A637B68012221
:102E7C005A6100BF1437BD4680BC7047002C01401E
:102E8C000004004080B487B000AFF860B9607A608D
:102E9C00FB681B6A7B61FB681B6A23F00102FB6801
:102EAC001A62FB689B693B613B6923F0F0033B6151
:102EBC007B681B013A6913433B617B6923F00A036E
:102ECC007B617A69BB6813437B61FB683A699A61E1
:102EDC00FB687A691A6200BF1C37BD4680BC70471C
:102EEC0080B487B000AFF860B9607A60FB681B6A89
:102EFC007B61FB681B6A23F01002FB681A62FB689B
:102F0C009B693B613B6923F470433B617B681B030A
:102F1C003A6913433B617B6923F0A0037B61BB6877
:102F2C001B017A6913437B61FB683A699A61FB6800
:102F3C007A691A6200BF1C37BD4680BC704780B4EA
:102F4C0085B000AF786039607B689B68FB60FB687C
:102F5C0023F07003FB603A68FB68134343F00703EC
:102F6C00FB607B68FA689A6000BF1437BD4680BC72
:102F7C00704780B487B000AFF860B9607A603B608E
:102F8C00FB689B687B617B6923F47F437B613B68B7
:102F9C001A027B681A43BB6813437A6913437B613B
:102FAC00FB687A699A6000BF1C37BD4680BC7047CD
:102FBC0080B485B000AF786039607B6893F83C30A2
:102FCC00012B01D1022341E07B68012283F83C20D4
:102FDC007B68022283F83D207B681B685B68FB6082
:102FEC007B681B689B68BB60FB6823F07003FB600D
:102FFC003B681B68FA681343FB607B681B68FA68C4
:10300C005A607B681B68144A934209D07B681B6822
:10301C00B3F1804F04D07B681B68104A93420CD1EB
:10302C00BB6823F08003BB603B685B68BA681343E2
:10303C00BB607B681B68BA689A607B68012283F866
:10304C003D207B68002283F83C200023184614376F
:10305C00BD4680BC704700BF002C014000040040FE
:10306C0080B483B000AF786000BF0C37BD4680BC25
:10307C00704780B483B000AF786000BF0C37BD469A
:10308C0080BC704780B582B000AF78607B68002B45
:10309C0001D1012342E07B6893F84130DBB2002B75
:1030AC0006D17B68002283F840207868FEF71AFB73
:1030BC007B68242283F841207B681B68DA687B6874
:1030CC001B6822F40052DA60786800F071FD7B68AE
:1030DC001B681A697B681B6822F490421A617B6832
:1030EC001B685A697B681B6822F02A025A617B684C
:1030FC001B68DA687B681B6842F40052DA607B68F4
:10310C0000225A647B68202283F841207B682022AD
:10311C0083F842207B6800225A6300231846083744
:10312C00BD4680BD80B58AB002AFF860B9603B6027
:10313C001346FB8000237B61FB6893F84130DBB2C4
:10314C00202B6DD1BB68002B02D0FB88002B01D14A
:10315C00012366E0FB6800225A64FB68212283F895
:10316C004120FEF709FC7861FB68FA889A84FB68B9
:10317C00FA88DA84FB689B68B3F5805F08D1FB683A
:10318C001B69002B04D10023FB61BB68BB6103E00E
:10319C00BB68FB610023BB612AE03B6800937B6941
:1031AC0000228021F86800F0F9FA0346002B01D0C8
:1031BC00032336E0FB69002B0BD1BB691B881A4635
:1031CC00FB681B68C2F308025A60BB690233BB611F
:1031DC0007E0FB691A78FB681B685A60FB690133CE
:1031EC00FB61FB68DB8C9BB2013B9AB2FB68DA8417
:1031FC00FB68DB8C9BB2002BCFD13B6800937B69C7
:10320C0000224021F86800F0C9FA0346002B01D0D7
:10321C00032306E0FB68202283F84120002300E012
:10322C00022318462037BD4680BD000080B5BAB0D9
:10323C0000AF78607B681B681B68C7F8E4307B685C
:10324C001B68DB68C7F8E0307B681B685B69C7F8F4
:10325C00DC300023C7F8D8300023C7F8D430D7F8B7
:10326C00E43003F00F03C7F8D830D7F8D830002B70
:10327C000FD1D7F8E43003F02003002B09D0D7F896
:10328C00E03003F02003002B03D0786800F0D1FB72
:10329C005BE2D7F8D830002B00F0DE80D7F8DC30BA
:1032AC0003F00103002B06D1D7F8E03003F4907340
:1032BC00002B00F0D180D7F8E43003F00103002B91
:1032CC000BD0D7F8E03003F48073002B05D07B686B
:1032DC005B6C43F001027B685A64D7F8E43003F06E
:1032EC000403002B0BD0D7F8DC3003F00103002BC8
:1032FC0005D07B685B6C43F002027B685A64D7F89C
:10330C00E43003F00203002B0BD0D7F8DC3003F0D1
:10331C000103002B05D07B685B6C43F004027B68D7
:10332C005A64D7F8E43003F00803002B11D0D7F817
:10333C00E03003F02003002B05D1D7F8DC3003F08C
:10334C000103002B05D07B685B6C43F008027B68A3
:10335C005A647B685B6C002B00F0F281D7F8E43088
:10336C0003F02003002B08D0D7F8E03003F0200343
:10337C00002B02D0786800F05CFB7B681B685B69F3
:10338C0003F04003002B14BF01230023DBB2C7F86A
:10339C00D4307B685B6C03F00803002B03D1D7F8A7
:1033AC00D430002B4FD0786800F066FA7B681B682D
:1033BC005B6903F04003002B41D07B681B6814331E
:1033CC00C7F89C30D7F89C3053E8003FC7F89830CA
:1033DC00D7F8983023F04003C7F8D0307B681B68CF
:1033EC001433D7F8D020C7F8A820C7F8A430D7F8E2
:1033FC00A410D7F8A82041E80023C7F8A030D7F8CC
:10340C00A030002BD9D17B68DB6B002B13D07B68F1
:10341C00DB6B7E4A5A637B68DB6B1846FEF7FEFB60
:10342C000346002B16D07B68DB6B5B6B7A68D26B28
:10343C00104698470EE0786800F09CF90AE078682E
:10344C0000F098F906E0786800F094F97B680022A7
:10345C005A6475E100BF73E17B681B6B012B40F074
:10346C004F81D7F8E43003F01003002B00F04881B3
:10347C00D7F8E03003F01003002B00F0418100235B
:10348C00BB607B681B681B68BB607B681B685B68E8
:10349C00BB60BB687B681B685B6903F04003002B57
:1034AC0000F0B6807B68DB6B1B685B68A7F8BE30EE
:1034BC00B7F8BE30002B00F045817B689B8DB7F8C8
:1034CC00BE209A4280F03E817B68B7F8BE20DA8538
:1034DC007B68DB6B9B69202B00F088807B681B680A
:1034EC000C33C7F88830D7F8883053E8003FC7F85A
:1034FC008430D7F8843023F48073C7F8B8307B68F5
:10350C001B680C33D7F8B820C7F89420C7F8903054
:10351C00D7F89010D7F8942041E80023C7F88C30E6
:10352C00D7F88C30002BD9D17B681B6814337B67A0
:10353C007B6F53E8003F3B673B6F23F00103C7F8F9
:10354C00B4307B681B681433D7F8B420C7F88020DC
:10355C00FB67F96FD7F8802041E80023BB67BB6F8E
:10356C00002BE1D17B681B6814333B663B6E53E840
:10357C00003FFB65FB6D23F04003C7F8B0307B6860
:10358C001B681433D7F8B020FA66BB66B96EFA6EB6
:10359C0041E800237B667B6E002BE3D17B68202205
:1035AC0083F842207B6800221A637B681B680C330B
:1035BC00FB64FB6C53E8003FBB64BB6C23F0100353
:1035CC00C7F8AC307B681B680C33D7F8AC20BA65F5
:1035DC007B65796DBA6D41E800233B653B6D002B33
:1035EC00E3D17B68DB6B1846FEF7DDFA7B680222C1
:1035FC005A637B689A8D7B68DB8D9BB2D31A9BB226
:10360C001946786800F0BFF89CE000BF4939000803
:10361C007B689A8D7B68DB8D9BB2D31AA7F8CE3072
:10362C007B68DB8D9BB2002B00F08E80B7F8CE3020
:10363C00002B00F089807B681B680C33BB63BB6B71
:10364C0053E8003F7B637B6B23F49073C7F8C8305F
:10365C007B681B680C33D7F8C8207A643B64396CE0
:10366C007A6C41E80023FB63FB6B002BE3D17B6896
:10367C001B6814337B627B6A53E8003F3B623B6AF6
:10368C0023F00103C7F8C4307B681B681433D7F8E8
:10369C00C4203A63FB62F96A3A6B41E80023BB62CF
:1036AC00BB6A002BE3D17B68202283F842207B6825
:1036BC0000221A637B681B680C333B613B6953E83F
:1036CC00003FFB60FB6823F01003C7F8C0307B6839
:1036DC001B680C33D7F8C020FA61BB61B969FA6971
:1036EC0041E800237B617B69002BE3D17B680222DC
:1036FC005A63B7F8CE301946786800F044F823E0E6
:10370C00D7F8E43003F08003002B09D0D7F8E03071
:10371C0003F08003002B03D0786800F023F914E049
:10372C00D7F8E43003F04003002B0ED0D7F8E0308C
:10373C0003F04003002B08D0786800F062F904E035
:10374C0000BF02E000BF00E000BFE837BD4680BD0F
:10375C0080B483B000AF786000BF0C37BD4680BC2E
:10376C00704780B483B000AF786000BF0C37BD46A3
:10377C0080BC704780B483B000AF786000BF0C375A
:10378C00BD4680BC704780B483B000AF78600B46F8
:10379C007B8000BF0C37BD4680BC704780B590B0B5
:1037AC0000AFF860B9603B601346FB7150E0BB6C36
:1037BC00B3F1FF3F4CD0BB6C002B07D0FEF7DCF80D
:1037CC0002463B68D31ABA6C9A4241D2FB681B681A
:1037DC000C33BB62BB6A53E8003F7B627B6A23F409
:1037EC00D073FB63FB681B680C33FA6B7A633B6327
:1037FC00396B7A6B41E80023FB62FB6A002BE5D145
:10380C00FB681B6814337B617B6953E8003F3B61A9
:10381C003B6923F00103BB63FB681B681433BA6B71
:10382C003A62FB61F9693A6A41E80023BB61BB6902
:10383C00002BE5D1FB68202283F84120FB68202275
:10384C0083F84220FB68002283F8402003230FE01A
:10385C00FB681B681A68BB681340BA689A420CBFB5
:10386C0001230023DBB21A46FB799A429FD0002336
:10387C0018464037BD4680BD80B495B000AF786027
:10388C007B681B680C337B637B6B53E8003F3B63AB
:10389C003B6B23F49073FB647B681B680C33FA6CF2
:1038AC003A64FB63F96B3A6C41E80023BB63BB6B76
:1038BC00002BE5D17B681B6814333B623B6A53E8F1
:1038CC00003FFB61FB6923F00103BB647B681B6851
:1038DC001433BA6CFA62BB62B96AFA6A41E8002323
:1038EC007B627B6A002BE5D17B681B6B012B19D1AA
:1038FC007B681B680C33FB60FB6853E8003FBB60C4
:10390C00BB6823F010037B647B681B680C337A6CF8
:10391C00BA617B617969BA6941E800233B613B6913
:10392C00002BE5D17B68202283F842207B680022A3
:10393C001A6300BF5437BD4680BC704780B584B055
:10394C0000AF78607B685B6AFB60FB680022DA85FD
:10395C00FB680022DA84F868FFF70CFF00BF103711
:10396C00BD4680BD80B485B000AF78607B6893F8AD
:10397C004130DBB2212B3ED17B689B68B3F5805F75
:10398C0014D17B681B69002B10D17B681B6AFB6010
:10399C00FB681B881A467B681B68C2F308025A60D6
:1039AC007B681B6A9A1C7B681A6208E07B681B6A3E
:1039BC00591C7A6811621A787B681B685A607B689C
:1039CC00DB8C9BB2013B9BB27A681946D184002BED
:1039DC000FD17B681B68DA687B681B6822F0800259
:1039EC00DA607B681B68DA687B681B6842F040020F
:1039FC00DA60002300E0022318461437BD4680BC71
:103A0C00704780B582B000AF78607B681B68DA685D
:103A1C007B681B6822F04002DA607B68202283F806
:103A2C0041207868FFF794FE002318460837BD46FE
:103A3C0080BD80B58CB000AF78607B6893F8423065
:103A4C00DBB2222B40F0AE807B689B68B3F5805FC5
:103A5C0017D17B681B69002B13D10023FB627B6899
:103A6C009B6ABB627B681B685B689BB2C3F30803F1
:103A7C009AB2BB6A1A807B689B6A9A1C7B689A62B2
:103A8C0026E07B689B6AFB620023BB627B689B68B9
:103A9C00B3F5805F07D07B689B68002B0AD17B68ED
:103AAC001B69002B06D17B681B685B68DAB2FB6A6A
:103ABC001A7008E07B681B685B68DBB203F07F035D
:103ACC00DAB2FB6A1A707B689B6A5A1C7B689A6232
:103ADC007B68DB8D9BB2013B9BB27A681946D18522
:103AEC00002B5DD17B681B68DA687B681B6822F051
:103AFC002002DA607B681B68DA687B681B6822F43A
:103B0C008072DA607B681B685A697B681B6822F0DC
:103B1C0001025A617B68202283F842207B680022D4
:103B2C005A637B681B6B012B35D17B6800221A63AF
:103B3C007B681B680C337B617B6953E8003F3B61FE
:103B4C003B6923F010037B627B681B680C337A6A39
:103B5C003A62FB61F9693A6A41E80023BB61BB69CF
:103B6C00002BE5D17B681B681B6803F01003102B3E
:103B7C000AD10023FB607B681B681B68FB607B68B9
:103B8C001B685B68FB60FB687B689B8D19467868DB
:103B9C00FFF7F9FD02E07868FFF7E3FD002302E090
:103BAC00002300E0022318463037BD4680BD0000DC
:103BBC0080B584B000AF78607B681B681B6923F408
:103BCC0040517B68DA687B681B680A431A617B6822
:103BDC009A687B681B691A437B685B691343BB60FB
:103BEC007B681B68DB6823F4B05323F00C037A6802
:103BFC001268B9680B43D3607B681B685B6923F45C
:103C0C0040717B689A697B681B680A435A617B68C0
:103C1C001B682C4A934203D1FEF71AFEF86002E0AF
:103C2C00FEF702FEF860FA6813469B0013449A00F4
:103C3C001A447B685B689B00B2FBF3F3224AA2FB3D
:103C4C0003235B091901FA6813469B0013449A007D
:103C5C001A447B685B689B00B2FBF3F21A4BA3FB24
:103C6C0002035B09642000FB03F3D31A1B013233FC
:103C7C00154AA2FB03235B0903F0F0031944FA680D
:103C8C0013469B0013449A001A447B685B689B00A4
:103C9C00B2FBF3F20C4BA3FB02035B09642000FBA9
:103CAC0003F3D31A1B013233074AA2FB03235B092C
:103CBC0003F00F027B681B680A449A6000BF103740
:103CCC00BD4680BD003801401F85EB51014B186883
:103CDC00704700BF5000002070B500260C4D0D4CF5
:103CEC00641BA410A64209D100F06CFC00260A4DFE
:103CFC000A4C641BA410A64205D170BD55F8043BB8
:103D0C0098470136EEE755F8043B98470136F2E741
:103D1C00744600087446000874460008784600088B
:103D2C00024B0146186800F05FB800BF500000203D
:103D3C00024B0146186800F00BB800BF5000002081
:103D4C0003460244934200D1704703F8011BF9E784
:103D5C0038B50546002943D051F8043C0C1F002B04
:103D6C00B8BFE41800F0CAF81E4A1368104633B9FD
:103D7C00636014602846BDE8384000F0C5B8A34223
:103D8C000AD921686218934201BF1A685B685218FD
:103D9C00226063600460EDE71A465B680BB1A342D6
:103DAC00FAD911685018A0420BD120680144501860
:103DBC0083421160DED118685B6801441160536066
:103DCC00D8E702D90C232B60D4E7206821188B424A
:103DDC0001BF19685B680918216063605460C9E70A
:103DEC0038BD00BFFC000020F8B5CD1C25F0030544
:103DFC0008350C2D38BF0C25002D064601DBA942D9
:103E0C0003D90C2333600020F8BD00F077F821496A
:103E1C000A6814469CB9204F3B6823B921463046AA
:103E2C0000F03CF838602946304600F037F8431C67
:103E3C0023D10C233046336000F066F8E3E72368A7
:103E4C005B1B17D40B2B03D923601C44256004E0A7
:103E5C006368A2420CBF0B605360304600F054F80C
:103E6C0004F10B00231D20F00700C21ACCD01B1A42
:103E7C00A350C9E722466468CCE7C41C24F00304B1
:103E8C00A042E3D0211A304600F008F80130DDD111
:103E9C00CFE700BFFC0000200001002038B5002354
:103EAC00054D044608462B60FDF7ACFC431C02D1C3
:103EBC002B6803B1236038BDE00100200EB46FF015
:103ECC00004100B59CB01DAB029006900791049187
:103EDC000848094953F8042B0591006802A901937D
:103EEC0000F074F80022029B1A701CB05DF804EB11
:103EFC0003B07047500000200802FFFF014800F09B
:103F0C00FBBA00BFE8010020014800F0F6BA00BF80
:103F1C00E80100202DE9F0478E6882469E420C464F
:103F2C0090461F4638D88A8912F4906F32D0256893
:103F3C0009690133A5EB010965694B4405EB45059E
:103F4C0005EBD5756D109D4238BF1D46530531D517
:103F5C002946FFF749FF064650B90C234FF0FF30B6
:103F6C00CAF80030A38943F04003A381BDE8F08771
:103F7C004A46216900F0D0FAA38923F4906343F0F8
:103F8C008003A38126614E4426603E466561A5EB05
:103F9C000905A560BE4200D93E463246414620681E
:103FAC0000F0C8FAA36822689B1B32440020A3606F
:103FBC002260DBE72A4600F0D7FA06460028E1D15A
:103FCC0050462169FFF7C4FEC7E700002DE9F04F0A
:103FDC0098468B8907461B060D4614469DB00ED598
:103FEC000B6963B94021FFF7FFFE2860286120B9F7
:103FFC000C233B604FF0FF30D1E040236B6100237A
:10400C00099320238DF8293030234FF00109CDF886
:10401C000C80DFF8A4818DF82A3023469A4613F8D9
:10402C00012B0AB1252AF9D1BAEB040B0BD05B4654
:10403C00224629463846FFF76DFF013000F0AA8072
:10404C00099A5A4409929AF80030002B00F0A28089
:10405C0000234FF0FF32CDE905230AF1010A049346
:10406C0007938DF853301A935446052214F8011B0C
:10407C00514800F043FA049AD8B9D00644BF202323
:10408C008DF85330110744BF2B238DF853309AF819
:10409C0000302A2B15D0544600204FF00A0C079AFA
:1040AC00214611F8013B303B092B4ED9B0B1079298
:1040BC0014E0A0EB080309FA03F31343A24604939C
:1040CC00D2E7039B191D1B680391002BBBBF5B42FE
:1040DC0042F0020207930793B8BF049223782E2B69
:1040EC000CD163782A2B35D1039B02341A1D1B6823
:1040FC000392002BB8BF4FF0FF330593DFF8C8A035
:10410C0003225046217800F0F9F940B14023A0EB8E
:10411C000A0003FA00F0049B01340343049314F8DF
:10412C00011B062225488DF8281000F0E7F900281D
:10413C0038D0234B1BBB039B073323F007030833F7
:10414C000393099B3344099367E70C4601200CFB4E
:10415C000232A5E700234FF00A0C194601340593EF
:10416C00204610F8012B303A092A03D9002BC5D070
:10417C000591C3E7044601230CFB0121F0E703ABD7
:10418C0000932A4638460F4B04A9AFF30080421C1B
:10419C000646D6D1AB895B063FF52CAF09981DB00E
:1041AC00BDE8F08F03AB00932A463846054B04A9B3
:1041BC0000F07CF8EBE700BF3E46000848460008DC
:1041CC0000000000213F0008444600082DE9F0479C
:1041DC00164699468A680B6907469342B8BF134640
:1041EC00336091F843200C46DDF820800AB101338E
:1041FC0033602368990642BF336802333360256805
:10420C0015F0060506D104F1190AE36832689B1A09
:10421C00AB4228DC94F84320131E226818BF0123FC
:10422C0092062DD44946384604F14302C04701306A
:10423C0020D02368E56803F00603042B18BF002583
:10424C0032684FF00006A36808BFAD1A226908BF98
:10425C0025EAE5759342C4BF9B1AED181A34B54292
:10426C001AD1002008E00123524649463846C0477F
:10427C00013003D14FF0FF30BDE8F0870135C4E7C2
:10428C003020E11881F843005A1C94F84510224460
:10429C00023382F84310C5E70123224649463846CB
:1042AC00C0470130E6D00136D9E700002DE9FF47C1
:1042BC000C46277E9146782F80469A460C9904F13D
:1042CC00430207D8622F0AD8002F00F0D980582F4C
:1042DC0000F0A48004F1420684F842703AE0A7F1A1
:1042EC006303152BF6D801A050F823F051430008B6
:1042FC0065430008E1420008E1420008E142000881
:10430C00E142000865430008E1420008E142000870
:10431C00E1420008E142000873440008954300089C
:10432C0055440008E1420008E142000895440008A9
:10433C00E142000895430008E1420008E142000810
:10434C005D4400080B6804F142061A1D1B680A60E4
:10435C0084F842300123A4E0256808682E0600F199
:10436C0004030AD505680B60002D03DA2D236D427A
:10437C0084F843300A235E4819E015F0400F0568B5
:10438C000B6018BF2DB2EFE70B682568181D08608D
:10439C00280601D51D6802E06906FBD51D886F2F24
:1043AC000CBF08230A235248002184F84310666886
:1043BC00002EA8BF2168A660A4BF21F004012160D3
:1043CC000DB9002E4DD01646B5FBF3F103FB11577A
:1043DC00C75D06F8017D2F46BB420D46F4D9082B6C
:1043EC000BD12368DF0708D5236961689942DEBFCA
:1043FC00302306F8013C06F1FF36921B22614B4636
:10440C0021464046CDF800A003AAFFF7DFFE01309D
:10441C004CD14FF0FF3004B0BDE8F087344884F83D
:10442C0045700E68236856F8045B1F060E6014D5A1
:10443C00D90744BF43F0200323601DB9236823F040
:10444C00200323601023AFE7236843F0200323608D
:10445C007823284884F84530E3E75E0648BFADB2C0
:10446C00E6E71646BBE70B6826681D1D60690D6004
:10447C0035061B6801D5186002E07106FBD5188063
:10448C00002316462361BAE70B681A1D0A601E68E2
:10449C0000213046626800F031F808B1801B606082
:1044AC0063682361002384F84330A8E73246494609
:1044BC0040462369D0470130ABD023689B0713D407
:1044CC00E068039B9842B8BF1846A4E70123324624
:1044DC0049464046D04701309BD00135E3680399EB
:1044EC005B1AAB42F2DCEBE7002504F11906F5E7A9
:1044FC004F4600086046000870477047034610B5E9
:10450C00C9B202449342184601D1002003E004785A
:10451C0001338C42F6D110BD0A44914200F1FF33B5
:10452C0000D1704710B511F8014B914203F8014FBF
:10453C00F9D110BD884210B501EB020402D98442B6
:10454C00234607D8431EA14208D011F8012B03F8CB
:10455C00012FF8E7014602448A4200D110BD13F83E
:10456C00014D02F8014DF7E7F8B5074614460E4623
:10457C0021B91146BDE8F840FFF736BC22B9FFF768
:10458C00E7FB25462846F8BD00F014F8A0420FD2F0
:10459C0021463846FFF728FC05460028F2D0314664
:1045AC002246FFF7B9FF31463846FFF7D1FBE9E762
:1045BC003546E7E751F8043C181F002BBCBF0B58DD
:1045CC00C0187047F8B500BFF8BC08BC9E467047D1
:0C45DC00F8B500BFF8BC08BC9E46704754
:1045E8005461736B494420256C642074696D656F50
:1045F80075742061742074696D657374616D7020C1
:104608002564206D73200D0A0000000000000000E2
:10461800000000000102030406070809000000006A
:104628000102030402030405060708090A0B0C0D1E
:104638000E0F10100102232D302B2000686C4C0047
:10464800656667454647003031323334353637388A
:1046580039414243444546003031323334353637E8
:0C46680038396162636465660000000080
:044674003101000808
:044678000D01000828
:10467C00010000000100000001000000010000002A
:10468C00010000000100000001000000010000001A
:10469C00010000000100000001000000010000000A
:1046AC00C80000005A0000000500000002000000D5
:1046BC00030000000024F4001000000001000000C2
:1046CC00540000200000000000000000000000006A
:1046DC0000000000000000000000000000000000CE
:1046EC0000000000000000000000000000000000BE
:1046FC0000000000000000000000000000000000AE
:10470C00000000000000000000000000000000009D
:10471C00000000000000000000000000000000008D
:04472C000000000089
:04000005080018894E
:00000001FF
