:020000040800F2
:10000000002800206D1A0008FD190008031A0008D6
:10001000091A00080F1A0008151A0008000000004D
:100020000000000000000000000000001B1A000893
:10003000271A000800000000331A00083F1A0008C1
:10004000B51A0008B51A0008B51A0008B51A000854
:10005000B51A0008B51A0008B51A0008B51A000844
:10006000B51A0008B51A0008B51A0008B51A000834
:10007000B51A0008B51A0008B51A0008B51A000824
:10008000B51A0008B51A0008B51A0008B51A000814
:10009000B51A0008B51A0008B51A0008B51A000804
:1000A000B51A0008B51A0008B51A0008B51A0008F4
:1000B0004D1A0008B51A000800000000B51A000823
:1000C000B51A00080000000000000000B51A000882
:1000D00000000000B51A0008B51A00080000000072
:1000E000B51A0008B51A0008B51A0008000000008B
:1000F0000000000000000000000000000000000000
:0C01000000000000000000005FF808F1A3
:10010C0010B5054C237833B9044B13B10448AFF345
:10011C0000800123237010BD50000020000000005F
:10012C008431000808B5034B1BB103490348AFF3F6
:10013C00008008BD0000000054000020843100083D
:10014C0080B400AF064B1B68012B04D1044B00227A
:10015C001A60012300E000231846BD4680BC70479E
:10016C006C00002080B400AF064B1B68012B04D13F
:10017C00044B00221A60012300E000231846BD4600
:10018C0080BC70477000002080B400AF064B1B6829
:10019C00012B04D1044B00221A60012300E0002340
:1001AC001846BD4680BC70477400002080B483B0F4
:1001BC0000AF78607B68012B02D10A4B01221A60D8
:1001CC007B68022B02D1084B01221A607B68032B3F
:1001DC0002D1064B01221A6000BF0C37BD4680BC11
:1001EC00704700BF6C0000207000002074000020DD
:1001FC0080B500AF5D4B1B685D4A13605D4B1B689F
:10020C005A4A13604FF400515B4801F039FF034622
:10021C001A46584B1A60594B1B68594A1360594B74
:10022C001B68564A13604FF48041534801F028FF75
:10023C0003461A46534B1A60534B1B68534A1360C0
:10024C00534B1B68504A13604FF400414A4801F06D
:10025C0017FF03461A464E4B1A60454B1A68434B20
:10026C001B689A4226D1414B1A68424B1B689A4232
:10027C0020D1484B1A683F4B1B689A420ED03D4B1D
:10028C001B68444A1360434B1B68002B12D1424B32
:10029C00C8221A600120FFF789FF0BE03E4B1B6858
:1002AC00013B3D4A13603C4B1B68002B02D1394B80
:1002BC0001221A60324B1A68304B1B689A4226D1C5
:1002CC002E4B1A682F4B1B689A4220D1334B1A685D
:1002DC002C4B1B689A420ED02A4B1B682F4A13607A
:1002EC002E4B1B68002B12D12B4BC8221A600220FC
:1002FC00FFF75CFF0BE0284B1B68013B264A1360A1
:10030C00254B1B68002B02D1244B01221A601F4B7A
:10031C001A681D4B1B689A4226D11B4B1A681C4B42
:10032C001B689A4220D11E4B1A68194B1B689A42C3
:10033C000ED0174B1B681A4A1360194B1B68002B05
:10034C0012D1154BC8221A600320FFF72FFF0BE0C8
:10035C00114B1B68013B104A13600F4B1B68002BA1
:10036C0002D10F4B01221A6000BF80BD0400002097
:10037C0000000020080000200010014014000020A4
:10038C001000002018000020240000202000002075
:10039C00280000200C000020300000201C00002051
:1003AC002C00002080B582B000AF78607B68002BF9
:1003BC0023D100220121C24801F079FE0022022142
:1003CC00BF4801F074FE00220421BD4801F06FFE0D
:1003DC0000220821BA4801F06AFE00221021B84818
:1003EC0001F065FE00222021B54801F060FE0122DB
:1003FC004021B34801F05BFE5DE17B68012B23D10A
:10040C0001220121AE4801F052FE00220221AC482B
:10041C0001F04DFE00220421A94801F048FE012202
:10042C000821A74801F043FE01221021A44801F045
:10043C003EFE01222021A24801F039FE012240217A
:10044C009F4801F034FE36E17B68022B23D1002259
:10045C0001219B4801F02BFE00220221984801F05B
:10046C0026FE01220421964801F021FE00220821DB
:10047C00934801F01CFE00221021914801F017FE58
:10048C00012220218E4801F012FE002240218C48CE
:10049C0001F00DFE0FE17B68032B23D1002201211B
:1004AC00874801F004FE00220221854801F0FFFD7F
:1004BC0000220421824801F0FAFD00220821804824
:1004CC0001F0F5FD012210217D4801F0F0FD012223
:1004DC0020217B4801F0EBFD00224021784801F0FF
:1004EC00E6FDE8E07B68042B23D10122012174484E
:1004FC0001F0DDFD00220221714801F0D8FD00223F
:10050C0004216F4801F0D3FD012208216C4801F051
:10051C00CEFD012210216A4801F0C9FD00222021E4
:10052C00674801F0C4FD00224021654801F0BFFD81
:10053C00C1E07B68052B23D100220121604801F02A
:10054C00B6FD012202215E4801F0B1FD002204211A
:10055C005B4801F0ACFD00220821594801F0A7FDD1
:10056C0001221021564801F0A2FD002220215448FE
:10057C0001F09DFD00224021514801F098FD9AE0C8
:10058C007B68062B23D1002201214D4801F08FFD01
:10059C00012202214A4801F08AFD00220421484828
:1005AC0001F085FD00220821454801F080FD002264
:1005BC001021434801F07BFD00222021404801F02E
:1005CC0076FD002240213E4801F071FD73E07B680E
:1005DC00072B23D100220121394801F068FD0022AC
:1005EC000221374801F063FD00220421344801F058
:1005FC005EFD01220821324801F059FD0122102133
:10060C002F4801F054FD012220212D4801F04FFD0F
:10061C00012240212A4801F04AFD4CE07B68082B5E
:10062C0023D100220121264801F041FD00220221A4
:10063C00234801F03CFD00220421214801F037FD44
:10064C00002208211E4801F032FD002210211C4816
:10065C0001F02DFD00222021194801F028FD002277
:10066C004021174801F023FD25E07B68092B22D19E
:10067C0000220121124801F01AFD0022022110482B
:10068C0001F015FD002204210D4801F010FD00229F
:10069C0008210B4801F00BFD01221021084801F044
:1006AC0006FD00222021064801F001FD0022402118
:1006BC00034801F0FCFC00BF0837BD4680BD00BFFD
:1006CC00000C014080B582B000AF78607B68002BD5
:1006DC0029D100228021C84801F0E9FC00224FF406
:1006EC008071C54801F0E3FC00224FF40071C24850
:1006FC0001F0DDFC00224FF48061BF4801F0D7FC13
:10070C0000224FF40061BC4801F0D1FC00224FF4F0
:10071C008051B94801F0CBFC01224FF40051B6488E
:10072C0001F0C5FC96E17B68012B29D101228021C7
:10073C00B14801F0BCFC00224FF48071AE4801F0CE
:10074C00B6FC00224FF40071AB4801F0B0FC012262
:10075C004FF48061A84801F0AAFC01224FF400611B
:10076C00A54801F0A4FC01224FF48051A24801F0ED
:10077C009EFC01224FF400519F4801F098FC69E166
:10078C007B68022B29D1002280219B4801F08FFC31
:10079C0000224FF48071984801F089FC01224FF43B
:1007AC000071954801F083FC00224FF4806192485F
:1007BC0001F07DFC00224FF400618F4801F077FCC2
:1007CC0001224FF480518C4801F071FC00224FF44F
:1007DC000051894801F06BFC3CE17B68032B29D16B
:1007EC0000228021844801F062FC00224FF48071C9
:1007FC00814801F05CFC00224FF400717E4801F04E
:10080C0056FC00224FF480617B4801F050FC012221
:10081C004FF40061784801F04AFC01224FF48051FA
:10082C00754801F044FC00224FF40051724801F06D
:10083C003EFC0FE17B68042B29D1012280216E48FC
:10084C0001F035FC00224FF480716B4801F02FFC55
:10085C0000224FF40071684801F029FC01224FF48A
:10086C008061654801F023FC01224FF4006162486D
:10087C0001F01DFC00224FF480515F4801F017FC81
:10088C0000224FF400515C4801F011FCE2E07B685F
:10089C00052B29D100228021574801F008FC0122A8
:1008AC004FF48071544801F002FC00224FF40071A7
:1008BC00514801F0FCFB00224FF480614E4801F0DE
:1008CC00F6FB01224FF400614B4801F0F0FB0022D3
:1008DC004FF48051484801F0EAFB00224FF40051DC
:1008EC00454801F0E4FBB5E07B68062B29D10022DA
:1008FC008021414801F0DBFB01224FF480713E481E
:10090C0001F0D5FB00224FF400713B4801F0CFFB06
:10091C0000224FF48061384801F0C9FB00224FF4EB
:10092C000061354801F0C3FB00224FF4805132487E
:10093C0001F0BDFB00224FF400512F4801F0B7FB32
:10094C0088E07B68072B29D1002280212A4801F0FE
:10095C00AEFB00224FF48071274801F0A8FB002267
:10096C004FF40071244801F0A2FB01224FF4806186
:10097C00214801F09CFB01224FF400611E4801F05C
:10098C0096FB01224FF480511B4801F090FB012291
:10099C004FF40051184801F08AFB5BE07B68082B90
:1009AC002CD100228021144801F081FB00224FF44D
:1009BC008071114801F07BFB00224FF400710E484E
:1009CC0001F075FB00224FF480610B4801F06FFBC6
:1009DC0000224FF40061084801F069FB00224FF43B
:1009EC008051054801F063FB00224FF4005102488E
:1009FC0001F05DFB2EE000BF000C01407B68092B71
:100A0C0028D100228021154801F051FB00224FF41F
:100A1C008071124801F04BFB00224FF400710F481B
:100A2C0001F045FB00224FF480610C4801F03FFBC4
:100A3C0001224FF40061094801F039FB00224FF408
:100A4C008051064801F033FB00224FF4005103485B
:100A5C0001F02DFB00BF0837BD4680BD000C0140E6
:100A6C0080B582B000AF786039603B687A2B3CD19E
:100A7C007B685C2B29D07B685C2B76DC7B685A2BE3
:100A8C0003D07B685B2B10D06FE0002202213B4827
:100A9C0001F00DFB01220421384801F008FB012272
:100AAC000821364801F003FB64E00122022133489F
:100ABC0001F0FDFA00220421304801F0F8FA01227D
:100ACC0008212E4801F0F3FA54E0012202212B48B0
:100ADC0001F0EDFA01220421284801F0E8FA002285
:100AEC000821264801F0E3FA44E03B687B2B3ED119
:100AFC007B685C2B29D07B685C2B3ADC7B685A2B9F
:100B0C0003D07B685B2B10D033E0002210211B48F4
:100B1C0001F0CDFA01222021184801F0C8FA012277
:100B2C004021164801F0C3FA24E001221021134899
:100B3C0001F0BDFA00222021104801F0B8FA012280
:100B4C0040210E4801F0B3FA14E0012210210B48A9
:100B5C0001F0ADFA01222021084801F0A8FA002288
:100B6C004021064801F0A3FA04E000BF02E000BFF8
:100B7C0000E000BF00BF0837BD4680BD0008014043
:100B8C0080B485B000AFF860B9607A60FB680D4A3C
:100B9C0082FB03129210DB17D21ABB681A60F96839
:100BAC00084B83FB01239A10CB17D21A13469B00D8
:100BBC0013445B00CA1A7B681A6000BF1437BD4629
:100BCC0080BC70476766666680B483B000AF78609F
:100BDC007B680C2B16D1294B1B68294A82FB03120C
:100BEC005211DB17D31A013B264A1360264B1B68A4
:100BFC00234A82FB03125211DB17D31A013B234AFF
:100C0C00136036E07B680D2B0BD1214B1B681C4A03
:100C1C0082FB03125211DB17D31A013B1D4A1360DE
:100C2C0027E07B680E2B16D1174B1B68144A82FBEE
:100C3C0003125211DB17D31A013B144A13600F4BEA
:100C4C001B680F4A82FB03125211DB17D31A013BAC
:100C5C000C4A13600DE07B680F2B0AD10C4B1B6800
:100C6C00074A82FB03125211DB17D31A013B094AC4
:100C7C00136000BF0C37BD4680BC704738000020A5
:100C8C001F85EB51780000204000002080000020E0
:100C9C003C0000207C00002080B500AF0B4B1B6893
:100CAC00012B11D10A4B1B68012B03D1084B0022DD
:100CBC001A6006E0064B1B68002B02D1044B012284
:100CCC001A60322000F082FD00BF80BDA000002021
:100CDC008400002080B582B000AF786039600A4B88
:100CEC001B68012B0CD17B681B685A1E7B681A6031
:100CFC003B681B685A1E3B681A60642000F088FD34
:100D0C0000BF0837BD4680BDA800002080B582B06A
:100D1C0000AF78603960144B1B68002B0ED1002299
:100D2C008021124801F0C3F901224FF480710F4861
:100D3C0001F0BDF97868FFF735FB11E00A4B1B6831
:100D4C00012B0DD101228021084801F0B0F90022BD
:100D5C004FF48071054801F0AAF93868FFF722FBBF
:100D6C0000BF0837BD4680BD84000020000801404C
:100D7C0080B582B000AF78603960154B1B68002BD2
:100D8C000FD100224FF40071124801F090F90122AA
:100D9C004FF480610F4801F08AF97868FFF792FCF4
:100DAC0012E00B4B1B68012B0ED101224FF400718A
:100DBC00084801F07CF900224FF48061054801F0ED
:100DCC0076F93868FFF77EFC00BF0837BD4680BD5A
:100DDC00840000200008014080B584B000AF0023DF
:100DEC00FB600023BB6000237B6000233B608B4BCC
:100DFC001B680B3B042B00F20C8101A252F823F070
:100E0C00210E00084B0E0008C30E0008370F000817
:100E1C00AB0F0008814B0C221A600C20FFF7D4FE9C
:100E2C007F4B1B68184600F0AFFC322000F0CEFC64
:100E3C00642000F0EDFC7B4B00221A60E9E07A2183
:100E4C005A20FFF70DFE7B215C20FFF709FE764B45
:100E5C001B68012B0AD1714B0D221A60734B1B6856
:100E6C00184600F091FC0D20FFF7AEFE704B1B688E
:100E7C0007F1080207F10C011846FFF781FE6D4BD4
:100E8C001B683A46391D1846FFF77AFEFB68BA68AC
:100E9C0011461846FFF73AFF7B683A681146184628
:100EAC00FFF766FFFFF7F8FE62496148FFF712FF94
:100EBC0000F01AF9ADE07A215A20FFF7D1FD7B2121
:100ECC005B20FFF7CDFD584B1B68012B0AD1534B10
:100EDC000E221A60524B1B68184600F055FC0E206F
:100EEC00FFF772FE524B1B6807F1080207F10C0169
:100EFC001846FFF745FE504B1B683A46391D1846FD
:100F0C00FFF73EFEFB68BA6811461846FFF7FEFE77
:100F1C007B683A6811461846FFF72AFFFFF7BCFEBC
:100F2C0045494348FFF7D6FE73E07A215C20FFF772
:100F3C0097FD7B215A20FFF793FD3B4B1B68012B40
:100F4C000AD1364B0F221A60384B1B68184600F03A
:100F5C001BFC0F20FFF738FE364B1B6807F108020D
:100F6C0007F10C011846FFF70BFE314B1B683A4694
:100F7C00391D1846FFF704FEFB68BA68114618467F
:100F8C00FFF7C4FE7B683A6811461846FFF7F0FE7F
:100F9C00FFF782FE26492748FFF79CFE39E07A21AD
:100FAC005B20FFF75DFD7B215A20FFF759FD1E4B9F
:100FBC001B68012B0AD1194B0C221A601B4B1B68A6
:100FCC00184600F0E1FB0C20FFF7FEFD1A4B1B68E6
:100FDC0007F1080207F10C011846FFF7D1FD144B7D
:100FEC001B683A46391D1846FFF7CAFDFB68BA68FC
:100FFC0011461846FFF78AFE7B683A681146184678
:10100C00FFF7B6FEFFF748FE09490B48FFF762FEF3
:10101C0000BF00BF1037BD4680BD00BF34000020AC
:10102C004000002084000020980000203C0000209C
:10103C0078000020800000207C00002080B400AFED
:10104C00104B1B68104A82FB03125211DB17D31A88
:10105C000E4A13600E4B1B680B4A82FB0312521193
:10106C00DB17D31A0B4A13600B4B1B68064A82FB27
:10107C0003125211DB17D31A084A136000BFBD4686
:10108C0080BC7047380000201F85EB518800002081
:10109C003C0000208C00002040000020900000202C
:1010AC0080B500AF012202210E4801F000F80122A8
:1010BC0004210C4800F0FBFF01220821094800F034
:1010CC00F6FF01221021074800F0F1FF0122202138
:1010DC00044800F0ECFF01224021024800F0E7FF39
:1010EC0000BF80BD0008014080B500AFFFF728F8B5
:1010FC000346012B2CD1174B01221A60164B0122EF
:10110C001A60164B01221A60FFF7CAFF322000F05A
:10111C00A1FB134B1B68522B03D1114B53221A60AA
:10112C0016E00F4B1B68532B03D10D4B54221A6046
:10113C000EE00B4B1B68542B03D1094B0B221A608E
:10114C0006E0074B1B680C2B02D1054B52221A6090
:10115C0000BF80BD780000207C00002080000020B3
:10116C003400002080B500AFFEF7FCFF0346012BD6
:10117C0031D11A4B1B68522B0CD1194B1B68013304
:10118C00174A1360164B1B68632B24DD144B632228
:10119C001A6020E0114B1B68532B0CD1114B1B68B0
:1011AC000133104A13600F4B1B68632B13DD0D4B7F
:1011BC0063221A600FE0094B1B68542B0BD10A4BAE
:1011CC001B680133084A1360074B1B68632B02DD55
:1011DC00054B63221A6000BF80BD00BF34000020A5
:1011EC00780000207C0000208000002080B500AF3B
:1011FC00FEF7CAFF0346012B22D1124B1B68522B60
:10120C0007D1114B1B68642202FB03F30F4A1360D6
:10121C0016E00C4B1B68532B07D10D4B1B6864223B
:10122C0002FB03F30B4A13600AE0064B1B68542BBA
:10123C0006D1094B1B68642202FB03F3074A1360B7
:10124C0000BF80BD34000020780000203800002052
:10125C007C0000203C00002080000020400000208A
:10126C0080B500AF084B1B68012B0AD1322000F06F
:10127C00F1FA0221054800F032FF1021034800F07A
:10128C002EFF00BF80BD00BFB00000200008014051
:10129C0080B500AF084B1B68012B0AD1322000F03F
:1012AC00D9FA0421054800F01AFF2021034800F068
:1012BC0016FF00BF80BD00BFB00000200008014039
:1012CC0080B500AF084B1B68012B0AD1322000F00F
:1012DC00C1FA0821054800F002FF4021034800F044
:1012EC00FEFE00BF80BD00BFB00000200008014022
:1012FC0080B485B000AF394B1B68394A82FB0312AE
:10130C005211DB17D31AFB60364B1B68344A82FB35
:10131C0003125211DB17D31ABB60334B1B68304AD4
:10132C0082FB03125211DB17D31A7B60FB68012B73
:10133C0005D0BB68012B02D07B68012B09D12B4B4C
:10134C001B68FB602A4B1B68BB602A4B1B687B60CD
:10135C002DE0BA687B681344FA689A4204DABA68DA
:10136C007B681344FB6018E0BA687B681344FA6826
:10137C009A4212DD1E4B1B68BA689A4204D1FA6875
:10138C007B68D31ABB6008E01A4B1B687A689A42D8
:10139C0003D1FA68BB68D31A7B60BA687B689A423F
:1013AC0005DDBB683B607B68BB603B687B60FB68B2
:1013BC00642202FB03F3094A1360BB68642202FB3C
:1013CC0003F3084A13607B68642202FB03F3064AAA
:1013DC00136000BF1437BD4680BC70473800002036
:1013EC001F85EB513C0000204000002088000020AD
:1013FC008C0000209000002080B582B000AF00234C
:10140C007B6000233B60344B1B68542B40D0542B27
:10141C005CDC522B02D0532B1ED057E0FFF70EFE94
:10142C00FFF71EFF2D4B1B683A46391D1846FFF778
:10143C00A7FB02210020FFF769FC7B683A68114684
:10144C001846FFF795FCFFF727FCFFF74DFEFFF75B
:10145C0089FEFFF7CBFE3AE0FFF71AFF204B1B6823
:10146C003A46391D1846FFF78BFB03210020FFF786
:10147C004DFC7B683A6811461846FFF779FCFFF77C
:10148C000BFCFFF731FEFFF76DFEFFF7AFFE1EE022
:10149C00FFF716FF134B1B683A46391D1846FFF72A
:1014AC006FFB04210020FFF731FC7B683A68114682
:1014BC001846FFF75DFCFFF7EFFBFFF715FEFFF794
:1014CC0051FEFFF793FEFFF713FF00E000BF00BFD4
:1014DC000837BD4680BD00BF3400002078000020D6
:1014EC007C0000208000002080B500AF00F0DEFA08
:1014FC0000F010F800F096F800F048F8044801F0FD
:10150C0077FA00F013F9FFF767FCFFF775FFFAE7BE
:10151C00B400002080B590B000AF07F1180328226A
:10152C000021184601F020FE3B1D00221A605A6073
:10153C009A60DA601A610223BB610123BB6210233B
:10154C00FB6200237B6307F11803184600F0E0FDF3
:10155C000346002B01D000F0E3F80F237B6000233F
:10156C00BB600023FB6000233B6100237B613B1DC0
:10157C000021184601F04CF80346002B01D000F076
:10158C00CFF800BF4037BD4680BD000080B586B0A7
:10159C0000AF07F1080300221A605A609A60DA6003
:1015AC003B4600221A605A601D4B4FF080421A6075
:1015BC001B4B41F63F725A60194B00229A60184B34
:1015CC000922DA60164B00221A61154B00229A612F
:1015DC00134801F079F90346002B01D000F0A0F874
:1015EC004FF48053BB6007F1080319460C4801F017
:1015FC0053FB0346002B01D000F092F800233B6014
:10160C0000237B603B461946054801F01FFD03464D
:10161C00002B01D000F084F800BF1837BD4680BD08
:10162C00B400002080B588B000AF07F11003002291
:10163C001A605A609A60DA602F4B9B692E4A43F00D
:10164C00100393612C4B9B6903F01003FB60FB6848
:10165C00294B9B69284A43F004039361264B9B69F1
:10166C0003F00403BB60BB68234B9B69224A43F025
:10167C0008039361204B9B6903F008037B607B6834
:10168C00002240F2FE711D4800F011FD002243F6CD
:10169C00FF711B4800F00BFD4FF460433B610023CE
:1016AC007B610123BB6107F110031946154800F05B
:1016BC006DFB40F2FE733B6101237B610023BB6138
:1016CC000223FB6107F1100319460C4800F05EFB86
:1016DC0043F6FF733B6101237B610023BB61022353
:1016EC00FB6107F110031946054800F04FFB00BFE2
:1016FC002037BD4680BD00BF0010024000080140ED
:10170C00000C01400010014080B582B000AF786041
:10171C0000F0C2F8FEF76CFD00BF0837BD4680BD77
:10172C0080B400AF72B600BFFEE7000080B500AF1A
:10173C00104801F019F90F4B1B689B6A0E4A136095
:10174C000C4B1B68DB6A0D4A13600B4B1B68013397
:10175C000A4A126802FB03F34FF47A7202FB03F39A
:10176C00074AA2FB03235B0D1A46064B1A6000BF07
:10177C0080BD00BFB400002004010020FC0000204C
:10178C0083DE1B430001002080B483B000AF78607F
:10179C000A4B1B687A6802FB03F3094A82FB0312AB
:1017AC009210DB17D31A074A1360074B00221A60FA
:1017BC0000BF0C37BD4680BC704700BF0001002045
:1017CC0067666666940000209800002080B483B0A1
:1017DC0000AF78600A4B1B687A6802FB03F3094A76
:1017EC0082FB03129210DB17D31A074A1360074BC4
:1017FC0000221A6000BF0C37BD4680BC704700BF8A
:10180C0000010020676666669C000020A000002096
:10181C0080B483B000AF78600A4B1B687A6802FB17
:10182C0003F3094A82FB03129210DB17D31A074AFF
:10183C001360074B00221A6000BF0C37BD4680BCFA
:10184C00704700BF0001002067666666A400002098
:10185C00A800002080B483B000AF78600A4B1B68EE
:10186C007A6802FB03F3094A82FB03129210DB171E
:10187C00D31A074A1360074B00221A6000BF0C37BB
:10188C00BD4680BC704700BF0001002067666666DD
:10189C00AC000020B000002080B400AF214B1B68CE
:1018AC00002B0BDD1F4B1B68013B1E4A13601D4BAD
:1018BC001B68002B02D11C4B01221A601B4B1B68AE
:1018CC00002B0BDD194B1B68013B184A1360174B9F
:1018DC001B68002B02D1164B01221A60154B1B689A
:1018EC00002B0BDD134B1B68013B124A1360114B91
:1018FC001B68002B02D1104B01221A600F4B1B6886
:10190C00002B0BDD0D4B1B68013B0C4A13600B4B82
:10191C001B68002B02D10A4B01221A6000BFBD4686
:10192C0080BC704794000020980000209C00002090
:10193C00A0000020A4000020A8000020AC00002083
:10194C00B000002080B485B000AF154B9B69144AE1
:10195C0043F001039361124B9B6903F00103BB60DD
:10196C00BB680F4BDB690E4A43F08053D3610C4BC1
:10197C00DB6903F080537B607B680A4B5B68FB6020
:10198C00FB6823F0E063FB60FB6843F08063FB6063
:10199C00044AFB68536000BF1437BD4680BC7047D7
:1019AC00001002400000014080B584B000AF7860A8
:1019BC007B681B68B3F1804F13D10C4BDB690B4A6E
:1019CC0043F00103D361094BDB6903F00103FB60B6
:1019DC00FB68002200211C2000F0A1F91C2000F063
:1019EC00BAF900BF1037BD4680BD00BF00100240E1
:1019FC0080B400AFFEE780B400AFFEE780B400AF68
:101A0C00FEE780B400AFFEE780B400AFFEE780B421
:101A1C0000AF00BFBD4680BC704780B400AF00BFB4
:101A2C00BD4680BC704780B400AF00BFBD4680BCD3
:101A3C00704780B500AF00F07FF800BF80BD00009C
:101A4C0080B500AF024801F01FF800BF80BD00BF99
:101A5C00B400002080B400AF00BFBD4680BC70470E
:101A6C00FFF7F8FF0B480C490C4A002302E0D4584E
:101A7C00C4500433C4188C42F9D3094A094C0023CE
:101A8C0001E013600432A242FBD301F049FBFFF7E3
:101A9C002BFD70470000002050000020C8310008CA
:101AAC00500000200C010020FEE7000080B500AFC4
:101ABC00084B1B68074A43F010031360032000F027
:101ACC0023F90F2000F008F8FFF73CFF002318461D
:101ADC0080BD00BF0020024080B582B000AF7860AE
:101AEC00124B1A68124B1B7819464FF47A73B3FBDE
:101AFC00F1F3B2FBF3F3184600F03BF90346002B6D
:101B0C0001D001230EE07B680F2B0AD800227968E4
:101B1C004FF0FF3000F003F9064A7B681360002396
:101B2C0000E0012318460837BD4680BD4400002064
:101B3C004C0000204800002080B400AF054B1B78FF
:101B4C001A46054B1B681344034A136000BFBD467D
:101B5C0080BC70474C0000200801002080B400AF0E
:101B6C00024B1B681846BD4680BC7047080100201C
:101B7C0080B485B000AF78607B6803F00703FB602E
:101B8C000C4BDB68BB60BA684FF6FF031340BB60BD
:101B9C00FB681A02BB68134343F0BF6343F4003382
:101BAC00BB60044ABB68D36000BF1437BD4680BC21
:101BBC00704700BF00ED00E080B400AF044BDB6861
:101BCC001B0A03F007031846BD4680BC704700BFD4
:101BDC0000ED00E080B483B000AF0346FB7197F9D1
:101BEC000730002B0BDBFB7903F01F02064997F93A
:101BFC0007305B09012000FA02F241F8232000BFF4
:101C0C000C37BD4680BC704700E100E080B483B067
:101C1C0000AF03463960FB7197F90730002B0ADBE4
:101C2C003B68DAB20C4997F907301201D2B20B4477
:101C3C0083F800230AE03B68DAB20849FB7903F029
:101C4C000F03043B1201D2B20B441A7600BF0C37BF
:101C5C00BD4680BC704700BF00E100E000ED00E035
:101C6C0080B489B000AFF860B9607A60FB6803F0AB
:101C7C000703FB61FB69C3F10703042B28BF042393
:101C8C00BB61FB690433062B02D9FB69033B00E003
:101C9C0000237B614FF0FF32BB6902FA03F3DA4396
:101CAC00BB681A407B699A404FF0FF317B6901FA9F
:101CBC0003F3D9437B680B40134318462437BD46C6
:101CCC0080BC704780B582B000AF78607B68013B08
:101CDC00B3F1807F01D301230FE00A4A7B68013BFB
:101CEC0053600F214FF0FF30FFF790FF054B0022A0
:101CFC009A60044B07221A60002318460837BD4629
:101D0C0080BD00BF10E000E080B582B000AF78600D
:101D1C007868FFF72DFF00BF0837BD4680BD80B542
:101D2C0086B000AF0346B9607A60FB7300237B6119
:101D3C00FFF742FF78617A68B9687869FFF790FF1E
:101D4C00024697F90F3011461846FFF75FFF00BFA8
:101D5C001837BD4680BD80B582B000AF0346FB711D
:101D6C0097F907301846FFF735FF00BF0837BD4617
:101D7C0080BD80B582B000AF78607868FFF7A2FFB5
:101D8C00034618460837BD4680BD000080B48BB0B2
:101D9C0000AF7860396000237B6200233B6248E12E
:101DAC0001227B6A02FA03F3FB613B681B68FA6948
:101DBC001340BB61BA69FB699A4240F037813B68BA
:101DCC005B68A34A93425ED0A14A934275D8A14A5C
:101DDC00934258D09F4A93426FD89F4A934252D015
:101DEC009D4A934269D89D4A93424CD09B4A934258
:101DFC0063D89B4A934246D0994A93425DD8122BA2
:101E0C002AD8122B59D801A252F823F0931E00089D
:101E1C006D1E00087F1E0008C11E0008C71E0008AA
:101E2C00C71E0008C71E0008C71E0008C71E0008F2
:101E3C00C71E0008C71E0008C71E0008C71E0008E2
:101E4C00C71E0008C71E0008C71E0008C71E0008D2
:101E5C00751E0008891E0008824A934213D02CE09C
:101E6C003B68DB683B6229E03B68DB6804333B6220
:101E7C0024E03B68DB6808333B621FE03B68DB68AF
:101E8C000C333B621AE03B689B68002B02D10423A5
:101E9C003B6213E03B689B68012B05D108233B6236
:101EAC007B68FA691A6109E008233B627B68FA696E
:101EBC005A6103E000233B6200E000BFBB69FF2BCB
:101ECC0001D87B6801E07B6804337B61BB69FF2B25
:101EDC0002D87B6A9B0002E07B6A083B9B003B615B
:101EEC007B691A680F213B6901FA03F3DB431A4043
:101EFC00396A3B6901FA03F31A437B691A603B6840
:101F0C005B6803F08053002B00F09080564B9B696C
:101F1C00554A43F001039361534B9B6903F0010352
:101F2C00BB60BB68514A7B6A9B08023352F8233072
:101F3C00FB607B6A03F003039B000F2202FA03F39E
:101F4C00DB43FA681340FB607B68494A93420DD02F
:101F5C007B68484A934207D07B68474A934201D139
:101F6C00022304E0032302E0012300E000237A6A49
:101F7C0002F0030292009340FA681343FB603B4962
:101F8C007B6A9B080233FA6841F823203B685B6844
:101F9C0003F48013002B06D0384B9A683749BB6981
:101FAC0013438B6006E0354B9A68BB69DB433349BE
:101FBC0013408B603B685B6803F40013002B06D066
:101FCC002E4BDA682D49BB691343CB6006E02B4BD3
:101FDC00DA68BB69DB4329491340CB603B685B681B
:101FEC0003F40033002B06D0244B5A682349BB69F9
:101FFC0013434B6006E0214B5A68BB69DB431F4916
:10200C0013404B603B685B6803F48033002B06D0B5
:10201C001A4B1A681949BB6913430B6006E0174B3E
:10202C001A68BB69DB43154913400B607B6A0133AB
:10203C007B623B681A687B6A22FA03F3002B7FF4FD
:10204C00AFAE00BF00BF2C37BD4680BC704700BF91
:10205C00000032100000311000002210000021108E
:10206C00000012100000111000100240000001408E
:10207C0000080140000C0140001001400004014028
:10208C0080B485B000AF78600B467B807B689A6823
:10209C007B881340002B02D00123FB7301E000234B
:1020AC00FB73FB7B18461437BD4680BC704780B46D
:1020BC0083B000AF78600B467B8013467B707B78D7
:1020CC00002B03D07A887B681A6103E07B881A04A2
:1020DC007B681A6100BF0C37BD4680BC704780B46A
:1020EC0085B000AF78600B467B807B68DB68FB605B
:1020FC007A88FB6813401A04FB68D9437B880B4031
:10210C001A437B681A6100BF1437BD4680BC704708
:10211C0080B586B000AF78607B68002B01D10123BD
:10212C006CE27B681B6803F00103002B00F08780D6
:10213C00924B5B6803F00C03042B0CD08F4B5B6849
:10214C0003F00C03082B12D18C4B5B6803F4803327
:10215C00B3F5803F0BD1894B1B6803F40033002B84
:10216C006CD07B685B68002B68D1012346E27B68EE
:10217C005B68B3F5803F06D1804B1B687F4A43F404
:10218C00803313602EE07B685B68002B0CD17B4B9B
:10219C001B687A4A23F480331360784B1B68774AA8
:1021AC0023F4802313601DE07B685B68B3F5A02FDC
:1021BC000CD1724B1B68714A43F4802313606F4B34
:1021CC001B686E4A43F4803313600BE06B4B1B6847
:1021DC006A4A23F480331360684B1B68674A23F404
:1021EC00802313607B685B68002B13D0FFF7B6FC71
:1021FC00386108E0FFF7B2FC02463B69D31A642B46
:10220C0001D90323FAE15D4B1B6803F40033002B67
:10221C00F0D014E0FFF7A2FC386108E0FFF79EFC59
:10222C0002463B69D31A642B01D90323E6E1534BD5
:10223C001B6803F40033002BF0D100E000BF7B6877
:10224C001B6803F00203002B63D04C4B5B6803F05C
:10225C000C03002B0BD0494B5B6803F00C03082BD1
:10226C001CD1464B5B6803F48033002B16D1434BD7
:10227C001B6803F00203002B05D07B681B69012B44
:10228C0001D00123BAE13D4B1B6823F0F8027B68B7
:10229C005B69DB00394913430B603AE07B681B69CF
:1022AC00002B20D0364B01221A60FFF757FC386107
:1022BC0008E0FFF753FC02463B69D31A022B01D905
:1022CC0003239BE12D4B1B6803F00203002BF0D082
:1022DC002A4B1B6823F0F8027B685B69DB002749FB
:1022EC0013430B6015E0264B00221A60FFF736FCF7
:1022FC00386108E0FFF732FC02463B69D31A022B27
:10230C0001D903237AE11D4B1B6803F00203002B58
:10231C00F0D17B681B6803F00803002B3AD07B6874
:10232C009B69002B19D0174B01221A60FFF716FC82
:10233C00386108E0FFF712FC02463B69D31A022B06
:10234C0001D903235AE10D4B5B6A03F00203002B06
:10235C00F0D0012000F09AFA1CE00A4B00221A601F
:10236C00FFF7FCFB38610FE0FFF7F8FB02463B6917
:10237C00D31A022B08D9032340E100BF00100240FE
:10238C0000004242800442429E4B5B6A03F002030F
:10239C00002BE9D17B681B6803F00403002B00F0D1
:1023AC00A6800023FB75974BDB6903F08053002B51
:1023BC000DD1944BDB69934A43F08053D361914B1D
:1023CC00DB6903F08053BB60BB680123FB758E4B4C
:1023DC001B6803F48073002B18D18B4B1B688A4A43
:1023EC0043F480731360FFF7B9FB386108E0FFF723
:1023FC00B5FB02463B69D31A642B01D90323FDE0DC
:10240C00814B1B6803F48073002BF0D07B68DB6876
:10241C00012B06D17B4B1B6A7A4A43F001031362F2
:10242C002DE07B68DB68002B0CD1764B1B6A754A60
:10243C0023F001031362734B1B6A724A23F00403EB
:10244C0013621CE07B68DB68052B0CD16D4B1B6A9F
:10245C006C4A43F0040313626A4B1B6A694A43F0EB
:10246C00010313620BE0674B1B6A664A23F00103FE
:10247C001362644B1B6A634A23F0040313627B6888
:10248C00DB68002B15D0FFF769FB38610AE0FFF71A
:10249C0065FB02463B69D31A41F28832934201D95B
:1024AC000323ABE0574B1B6A03F00203002BEED067
:1024BC0014E0FFF753FB38610AE0FFF74FFB0246CD
:1024CC003B69D31A41F28832934201D9032395E038
:1024DC004C4B1B6A03F00203002BEED1FB7D012B4E
:1024EC0005D1484BDB69474A23F08053D3617B68A5
:1024FC00DB69002B00F08180424B5B6803F00C031E
:10250C00082B61D07B68DB69022B46D13F4B002244
:10251C001A60FFF723FB386108E0FFF71FFB024648
:10252C003B69D31A022B01D9032367E0354B1B6897
:10253C0003F00073002BF0D17B681B6AB3F5803F6E
:10254C0008D1304B5B6823F400327B689B682D49C3
:10255C0013434B602B4B5B6823F474127B68196A32
:10256C007B685B6A0B43274913434B60274B012263
:10257C001A60FFF7F3FA386108E0FFF7EFFA02464A
:10258C003B69D31A022B01D9032337E01D4B1B687F
:10259C0003F00073002BF0D02FE01C4B00221A60CC
:1025AC00FFF7DCFA386108E0FFF7D8FA02463B691E
:1025BC00D31A022B01D9032320E0124B1B6803F022
:1025CC000073002BF0D118E07B68DB69012B01D183
:1025DC00012313E00B4B5B68FB60FB6803F4803258
:1025EC007B681B6A9A4206D1FB6803F470127B6805
:1025FC005B6A9A4201D0012300E000231846183789
:10260C00BD4680BD00100240007000406000424298
:10261C0080B584B000AF786039607B68002B01D145
:10262C000123D0E06A4B1B6803F007033A689A4217
:10263C0010D9674B1B6823F0070265493B681343AD
:10264C000B60634B1B6803F007033A689A4201D096
:10265C000123B8E07B681B6803F00203002B20D039
:10266C007B681B6803F00403002B05D0594B5B6897
:10267C00584A43F4E06353607B681B6803F008031B
:10268C00002B05D0534B5B68524A43F460535360A4
:10269C00504B5B6823F0F0027B689B684D491343F9
:1026AC004B607B681B6803F00103002B40D07B68F8
:1026BC005B68012B07D1474B1B6803F40033002BDD
:1026CC0015D101237FE07B685B68022B07D1414B5E
:1026DC001B6803F00073002B09D1012373E03D4B01
:1026EC001B6803F00203002B01D101236BE0394B73
:1026FC005B6823F003027B685B68364913434B60CD
:10270C00FFF72CFAF8600AE0FFF728FA0246FB689C
:10271C00D31A41F28832934201D9032353E02D4B53
:10272C005B6803F00C027B685B689B009A42EBD100
:10273C00274B1B6803F007033A689A4210D2244BCC
:10274C001B6823F0070222493B6813430B60204BA4
:10275C001B6803F007033A689A4201D0012332E068
:10276C007B681B6803F00403002B08D0194B5B68D3
:10277C0023F4E0627B68DB68164913434B607B688B
:10278C001B6803F00803002B09D0124B5B6823F481
:10279C0060527B681B69DB000E4913434B6000F0F1
:1027AC0021F802460B4B5B681B0903F00F030A4927
:1027BC00CB5C22FA03F3094A1360094B1B681846D9
:1027CC00FFF78AF9002318461037BD4680BD00BFBD
:1027DC0000200240001002409C3100084400002000
:1027EC004800002080B487B000AF0023FB600023BA
:1027FC00BB6000237B6100237B6000233B611E4B8D
:10280C005B68FB60FB6803F00C03042B02D0082B05
:10281C0003D027E0194B3B6127E0FB689B0C03F0CE
:10282C000F03174AD35C7B60FB6803F48033002BE7
:10283C0010D0114B5B685B0C03F00103114AD35CA5
:10284C00BB607B680D4A02FB03F2BB68B2FBF3F37F
:10285C007B6104E07B680C4A02FB03F37B617B69C0
:10286C003B6102E0054B3B6100BF3B6918461C37DE
:10287C00BD4680BC704700BF0010024000127A00B9
:10288C00AC310008BC31000800093D0080B485B0B3
:10289C0000AF78600A4B1B680A4AA2FB03235B0A51
:1028AC007A6802FB03F3FB6000BFFB685A1EFA60F8
:1028BC00002BF9D100BF00BF1437BD4680BC704758
:1028CC0044000020D34D621080B582B000AF786018
:1028DC007B68002B01D1012341E07B6893F83D30EC
:1028EC00DBB2002B06D17B68002283F83C20786891
:1028FC00FFF75AF87B68022283F83D207B681A6840
:10290C007B6804331946104600F0B2FA7B6801224A
:10291C0083F846207B68012283F83E207B680122E5
:10292C0083F83F207B68012283F840207B680122DA
:10293C0083F841207B68012283F842207B680122C6
:10294C0083F843207B68012283F844207B680122B2
:10295C0083F845207B68012283F83D20002318462C
:10296C000837BD4680BD000080B485B000AF7860EC
:10297C007B6893F83D30DBB2012B01D001232DE0B5
:10298C007B68022283F83D207B681B68164A9342C1
:10299C0009D07B681B68B3F1804F04D07B681B683F
:1029AC00124A934211D17B681B689B6803F00703A2
:1029BC00FB60FB68062B10D07B681B681A687B6871
:1029CC001B6842F001021A6007E07B681B681A68FA
:1029DC007B681B6842F001021A600023184614370A
:1029EC00BD4680BC704700BF002C01400004004075
:1029FC0080B485B000AF78607B6893F83D30DBB273
:102A0C00012B01D0012335E07B68022283F83D20A5
:102A1C007B681B68DA687B681B6842F00102DA602D
:102A2C007B681B68164A934209D07B681B68B3F11C
:102A3C00804F04D07B681B68124A934211D17B688B
:102A4C001B689B6803F00703FB60FB68062B10D028
:102A5C007B681B681A687B681B6842F001021A606D
:102A6C0007E07B681B681A687B681B6842F00102F0
:102A7C001A60002318461437BD4680BC704700BF4F
:102A8C00002C01400004004080B582B000AF78609B
:102A9C007B681B681B6903F00203022B22D17B6845
:102AAC001B68DB6803F00203022B1BD17B681B68DD
:102ABC006FF002021A617B6801221A777B681B682F
:102ACC009B6903F00303002B03D0786800F0B4F982
:102ADC0005E0786800F0A7F9786800F0B6F97B6833
:102AEC0000221A777B681B681B6903F00403042B14
:102AFC0022D17B681B68DB6803F00403042B1BD119
:102B0C007B681B686FF004021A617B6802221A77DB
:102B1C007B681B689B6903F44073002B03D07868B7
:102B2C0000F08AF905E0786800F07DF9786800F02B
:102B3C008CF97B6800221A777B681B681B6903F091
:102B4C000803082B22D17B681B68DB6803F00803A1
:102B5C00082B1BD17B681B686FF008021A617B681D
:102B6C0004221A777B681B68DB6903F00303002BD4
:102B7C0003D0786800F060F905E0786800F053F94C
:102B8C00786800F062F97B6800221A777B681B6812
:102B9C001B6903F01003102B22D17B681B68DB68C8
:102BAC0003F01003102B1BD17B681B686FF0100215
:102BBC001A617B6808221A777B681B68DB6903F44F
:102BCC004073002B03D0786800F036F905E0786884
:102BDC0000F029F9786800F038F97B6800221A7740
:102BEC007B681B681B6903F00103012B0ED17B680A
:102BFC001B68DB6803F00103012B07D17B681B68A2
:102C0C006FF001021A617868FEF77EFD7B681B6825
:102C1C001B6903F08003802B0ED17B681B68DB687B
:102C2C0003F08003802B07D17B681B686FF0800258
:102C3C001A61786800F06BFA7B681B681B6903F0FB
:102C4C004003402B0ED17B681B68DB6803F040030C
:102C5C00402B07D17B681B686FF040021A617868C3
:102C6C0000F0FCF87B681B681B6903F02003202B29
:102C7C000ED17B681B68DB6803F02003202B07D187
:102C8C007B681B686FF020021A61786800F036FAD6
:102C9C0000BF0837BD4680BD80B584B000AF7860FA
:102CAC0039600023FB737B6893F83C30012B01D116
:102CBC000223B4E07B68012283F83C207B6802226B
:102CCC0083F83D207B681B689B68BB60BB6823F066
:102CDC007703BB60BB6823F47F43BB607B681B68D6
:102CEC00BA689A603B681B68B3F5005F3ED0B3F5D9
:102CFC00005F00F28780B3F5805F00F08680B3F54B
:102D0C00805F7FD8702B1AD0702B7BD8602B50D063
:102D1C00602B77D8502B3CD0502B73D8402B58D0ED
:102D2C00402B6FD8302B64D0302B6BD8202B60D03D
:102D3C00202B67D8002B5CD0102B5AD062E07B681C
:102D4C0018683B6899683B685A683B68DB6800F018
:102D5C005EF97B681B689B68BB60BB6843F07703BC
:102D6C00BB607B681B68BA689A604FE07B68186828
:102D7C003B6899683B685A683B68DB6800F047F928
:102D8C007B681B689A687B681B6842F480429A6077
:102D9C003CE07B6818683B6859683B68DB681A46FE
:102DAC0000F0BEF87B681B685021184600F015F93E
:102DBC002CE07B6818683B6859683B68DB681A46EE
:102DCC0000F0DCF87B681B686021184600F005F900
:102DDC001CE07B6818683B6859683B68DB681A46DE
:102DEC0000F09EF87B681B684021184600F0F5F84F
:102DFC000CE07B681A683B681B681946104600F0AB
:102E0C00ECF803E00123FB7300E000BF7B680122B8
:102E1C0083F83D207B68002283F83C20FB7B18461E
:102E2C001037BD4680BD80B483B000AF786000BF62
:102E3C000C37BD4680BC704780B483B000AF78605F
:102E4C0000BF0C37BD4680BC704780B483B000AF68
:102E5C00786000BF0C37BD4680BC704780B483B02F
:102E6C0000AF786000BF0C37BD4680BC70470000D7
:102E7C0080B485B000AF786039607B681B68FB60FC
:102E8C007B68254A934207D07B68B3F1804F03D00F
:102E9C007B68224A934208D1FB6823F07003FB60E5
:102EAC003B685B68FA681343FB607B681A4A934281
:102EBC0007D07B68B3F1804F03D07B68174A9342ED
:102ECC0008D1FB6823F44073FB603B68DB68FA684D
:102EDC001343FB60FB6823F080023B685B69134380
:102EEC00FB607B68FA681A603B689A687B68DA62F8
:102EFC003B681A687B689A627B68074A934203D1E5
:102F0C003B681A697B681A637B6801225A6100BFAF
:102F1C001437BD4680BC7047002C014000040040B3
:102F2C0080B487B000AFF860B9607A60FB681B6A48
:102F3C007B61FB681B6A23F00102FB681A62FB6869
:102F4C009B693B613B6923F0F0033B617B681B0190
:102F5C003A6913433B617B6923F00A037B617A690D
:102F6C00BB6813437B61FB683A699A61FB687A69B9
:102F7C001A6200BF1C37BD4680BC704780B487B056
:102F8C0000AFF860B9607A60FB681B6A7B61FB6814
:102F9C001B6A23F01002FB681A62FB689B693B6199
:102FAC003B6923F470433B617B681B033A69134311
:102FBC003B617B6923F0A0037B61BB681B017A69D1
:102FCC0013437B61FB683A699A61FB687A691A6200
:102FDC0000BF1C37BD4680BC704780B485B000AFC5
:102FEC00786039607B689B68FB60FB6823F070033A
:102FFC00FB603A68FB68134343F00703FB607B6894
:10300C00FA689A6000BF1437BD4680BC704780B424
:10301C0087B000AFF860B9607A603B60FB689B6872
:10302C007B617B6923F47F437B613B681A027B687D
:10303C001A43BB6813437A6913437B61FB687A6953
:10304C009A6000BF1C37BD4680BC704780B485B009
:10305C0000AF786039607B6893F83C30012B01D16C
:10306C00022341E07B68012283F83C207B6802222A
:10307C0083F83D207B681B685B68FB607B681B6882
:10308C009B68BB60FB6823F07003FB603B681B68AC
:10309C00FA681343FB607B681B68FA685A607B68AC
:1030AC001B68144A934209D07B681B68B3F1804FAC
:1030BC0004D07B681B68104A93420CD1BB6823F088
:1030CC008003BB603B685B68BA681343BB607B687A
:1030DC001B68BA689A607B68012283F83D207B6884
:1030EC00002283F83C20002318461437BD4680BCD0
:1030FC00704700BF002C01400004004080B483B036
:10310C0000AF786000BF0C37BD4680BC704780B400
:10311C0083B000AF786000BF0C37BD4680BC7047F1
:10312C0070B500260C4D0D4C641BA410A64209D1A1
:10313C0000F022F800260A4D0A4C641BA410A6428B
:10314C0005D170BD55F8043B98470136EEE755F8AC
:10315C00043B98470136F2E7C0310008C031000843
:10316C00C0310008C431000803460244934200D128
:10317C00704703F8011BF9E7F8B500BFF8BC08BCB1
:10318C009E467047F8B500BFF8BC08BC9E46704719
:10319C0000000000000000000102030406070809FB
:1031AC0002030405060708090A0B0C0D0E0F10107C
:0431BC00010200000C
:0431C00031010008D1
:0431C4000D010008F1
:1031C80001000000010000000100000001000000F3
:1031D80001000000010000000100000001000000E3
:1031E80001000000010000000100000001000000D3
:1031F800C80000000B000000F4010000C800000037
:103208002C0100000024F400100000000100000060
:0400000508001A6D68
:00000001FF
