:020000040800F2
:1000000000280020A119000831190008371900083C
:100010003D190008431900084919000800000000B4
:100020000000000000000000000000004F19000860
:100030005B19000800000000671900087319000828
:10004000E9190008E9190008E9190008E919000888
:10005000E9190008E9190008E9190008E919000878
:10006000E9190008E9190008E9190008E919000868
:10007000E9190008E9190008E9190008E919000858
:10008000E9190008E9190008E9190008E919000848
:10009000E9190008E9190008E9190008E919000838
:1000A000E9190008E9190008E9190008E919000828
:1000B00081190008E919000800000000E91900088A
:1000C000E91900080000000000000000E91900081C
:1000D00000000000E9190008E9190008000000000C
:1000E000E9190008E9190008E919000800000000F2
:1000F0000000000000000000000000000000000000
:0C01000000000000000000005FF808F1A3
:10010C0010B5054C237833B9044B13B10448AFF345
:10011C0000800123237010BD50000020000000005F
:10012C003030000808B5034B1BB103490348AFF34B
:10013C00008008BD00000000540000203030000892
:10014C0080B400AF064B1B68012B04D1044B00227A
:10015C001A60012300E000231846BD4680BC70479E
:10016C006C00002080B400AF064B1B68012B04D13F
:10017C00044B00221A60012300E000231846BD4600
:10018C0080BC70477000002080B400AF064B1B6829
:10019C00012B04D1044B00221A60012300E0002340
:1001AC001846BD4680BC70477400002080B483B0F4
:1001BC0000AF78607B68012B02D10A4B01221A60D8
:1001CC007B68022B02D1084B01221A607B68032B3F
:1001DC0002D1064B01221A6000BF0C37BD4680BC11
:1001EC00704700BF6C0000207000002074000020DD
:1001FC0080B500AF5D4B1B685D4A13605D4B1B689F
:10020C005A4A13604FF400515B4801F0D3FE034689
:10021C001A46584B1A60594B1B68594A1360594B74
:10022C001B68564A13604FF48041534801F0C2FEDC
:10023C0003461A46534B1A60534B1B68534A1360C0
:10024C00534B1B68504A13604FF400414A4801F06D
:10025C00B1FE03461A464E4B1A60454B1A68434B87
:10026C001B689A4226D1414B1A68424B1B689A4232
:10027C0020D1484B1A683F4B1B689A420ED03D4B1D
:10028C001B68444A1360434B1B68002B12D1424B32
:10029C00C8221A600120FFF789FF0BE03E4B1B6858
:1002AC00013B3D4A13603C4B1B68002B02D1394B80
:1002BC0001221A60324B1A68304B1B689A4226D1C5
:1002CC002E4B1A682F4B1B689A4220D1334B1A685D
:1002DC002C4B1B689A420ED02A4B1B682F4A13607A
:1002EC002E4B1B68002B12D12B4BC8221A600220FC
:1002FC00FFF75CFF0BE0284B1B68013B264A1360A1
:10030C00254B1B68002B02D1244B01221A601F4B7A
:10031C001A681D4B1B689A4226D11B4B1A681C4B42
:10032C001B689A4220D11E4B1A68194B1B689A42C3
:10033C000ED0174B1B681A4A1360194B1B68002B05
:10034C0012D1154BC8221A600320FFF72FFF0BE0C8
:10035C00114B1B68013B104A13600F4B1B68002BA1
:10036C0002D10F4B01221A6000BF80BD0400002097
:10037C0000000020080000200010014014000020A4
:10038C001000002018000020240000202000002075
:10039C00280000200C000020300000201C00002051
:1003AC002C00002080B582B000AF78607B68002BF9
:1003BC0023D100220121C24801F013FE00220221A8
:1003CC00BF4801F00EFE00220421BD4801F009FED9
:1003DC0000220821BA4801F004FE00221021B8487E
:1003EC0001F0FFFD00222021B54801F0FAFD0122A9
:1003FC004021B34801F0F5FD5DE17B68012B23D171
:10040C0001220121AE4801F0ECFD00220221AC4892
:10041C0001F0E7FD00220421A94801F0E2FD0122D0
:10042C000821A74801F0DDFD01221021A44801F0AC
:10043C00D8FD01222021A24801F0D3FD0122402148
:10044C009F4801F0CEFD36E17B68022B23D10022C0
:10045C0001219B4801F0C5FD00220221984801F0C2
:10046C00C0FD01220421964801F0BBFD00220821A9
:10047C00934801F0B6FD00221021914801F0B1FD26
:10048C00012220218E4801F0ACFD002240218C4835
:10049C0001F0A7FD0FE17B68032B23D10022012182
:1004AC00874801F09EFD00220221854801F099FD4C
:1004BC0000220421824801F094FD0022082180488A
:1004CC0001F08FFD012210217D4801F08AFD0122EF
:1004DC0020217B4801F085FD00224021784801F065
:1004EC0080FDE8E07B68042B23D1012201217448B4
:1004FC0001F077FD00220221714801F072FD00220B
:10050C0004216F4801F06DFD012208216C4801F0B7
:10051C0068FD012210216A4801F063FD00222021B0
:10052C00674801F05EFD00224021654801F059FD4D
:10053C00C1E07B68052B23D100220121604801F02A
:10054C0050FD012202215E4801F04BFD00220421E6
:10055C005B4801F046FD00220821594801F041FD9D
:10056C0001221021564801F03CFD00222021544864
:10057C0001F037FD00224021514801F032FD9AE094
:10058C007B68062B23D1002201214D4801F029FD67
:10059C00012202214A4801F024FD0022042148488E
:1005AC0001F01FFD00220821454801F01AFD002230
:1005BC001021434801F015FD00222021404801F094
:1005CC0010FD002240213E4801F00BFD73E07B68DA
:1005DC00072B23D100220121394801F002FD002212
:1005EC000221374801F0FDFC00220421344801F0BF
:1005FC00F8FC01220821324801F0F3FC0122102101
:10060C002F4801F0EEFC012220212D4801F0E9FCDD
:10061C00012240212A4801F0E4FC4CE07B68082BC5
:10062C0023D100220121264801F0DBFC002202210B
:10063C00234801F0D6FC00220421214801F0D1FC12
:10064C00002208211E4801F0CCFC002210211C487D
:10065C0001F0C7FC00222021194801F0C2FC002245
:10066C004021174801F0BDFC25E07B68092B22D105
:10067C0000220121124801F0B4FC00220221104892
:10068C0001F0AFFC002204210D4801F0AAFC00226D
:10069C0008210B4801F0A5FC01221021084801F0AB
:1006AC00A0FC00222021064801F09BFC00224021E6
:1006BC00034801F096FC00BF0837BD4680BD00BF63
:1006CC00000C014080B582B000AF78607B68002BD5
:1006DC0029D100228021C84801F083FC00224FF46C
:1006EC008071C54801F07DFC00224FF40071C248B6
:1006FC0001F077FC00224FF48061BF4801F071FCDF
:10070C0000224FF40061BC4801F06BFC00224FF456
:10071C008051B94801F065FC01224FF40051B648F4
:10072C0001F05FFC96E17B68012B29D1012280212D
:10073C00B14801F056FC00224FF48071AE4801F034
:10074C0050FC00224FF40071AB4801F04AFC01222E
:10075C004FF48061A84801F044FC01224FF4006181
:10076C00A54801F03EFC01224FF48051A24801F053
:10077C0038FC01224FF400519F4801F032FC69E132
:10078C007B68022B29D1002280219B4801F029FC97
:10079C0000224FF48071984801F023FC01224FF4A1
:1007AC000071954801F01DFC00224FF480619248C5
:1007BC0001F017FC00224FF400618F4801F011FC8E
:1007CC0001224FF480518C4801F00BFC00224FF4B5
:1007DC000051894801F005FC3CE17B68032B29D1D1
:1007EC0000228021844801F0FCFB00224FF4807130
:1007FC00814801F0F6FB00224FF400717E4801F0B5
:10080C00F0FB00224FF480617B4801F0EAFB0122EF
:10081C004FF40061784801F0E4FB01224FF4805161
:10082C00754801F0DEFB00224FF40051724801F0D4
:10083C00D8FB0FE17B68042B29D1012280216E4863
:10084C0001F0CFFB00224FF480716B4801F0C9FB23
:10085C0000224FF40071684801F0C3FB01224FF4F1
:10086C008061654801F0BDFB01224FF400616248D4
:10087C0001F0B7FB00224FF480515F4801F0B1FB4F
:10088C0000224FF400515C4801F0ABFBE2E07B68C6
:10089C00052B29D100228021574801F0A2FB01220F
:1008AC004FF48071544801F09CFB00224FF400710E
:1008BC00514801F096FB00224FF480614E4801F044
:1008CC0090FB01224FF400614B4801F08AFB00229F
:1008DC004FF48051484801F084FB00224FF4005142
:1008EC00454801F07EFBB5E07B68062B29D1002240
:1008FC008021414801F075FB01224FF480713E4884
:10090C0001F06FFB00224FF400713B4801F069FBD2
:10091C0000224FF48061384801F063FB00224FF451
:10092C000061354801F05DFB00224FF480513248E4
:10093C0001F057FB00224FF400512F4801F051FBFE
:10094C0088E07B68072B29D1002280212A4801F0FE
:10095C0048FB00224FF48071274801F042FB002233
:10096C004FF40071244801F03CFB01224FF48061EC
:10097C00214801F036FB01224FF400611E4801F0C2
:10098C0030FB01224FF480511B4801F02AFB01225D
:10099C004FF40051184801F024FB5BE07B68082BF6
:1009AC002CD100228021144801F01BFB00224FF4B3
:1009BC008071114801F015FB00224FF400710E48B4
:1009CC0001F00FFB00224FF480610B4801F009FB92
:1009DC0000224FF40061084801F003FB00224FF4A1
:1009EC008051054801F0FDFA00224FF400510248F5
:1009FC0001F0F7FA2EE000BF000C01407B68092BD8
:100A0C0028D100228021154801F0EBFA00224FF486
:100A1C008071124801F0E5FA00224FF400710F4882
:100A2C0001F0DFFA00224FF480610C4801F0D9FA92
:100A3C0001224FF40061094801F0D3FA00224FF46F
:100A4C008051064801F0CDFA00224FF400510348C2
:100A5C0001F0C7FA00BF0837BD4680BD000C01404D
:100A6C0080B582B000AF786039603B687A2B3CD19E
:100A7C007B685C2B29D07B685C2B76DC7B685A2BE3
:100A8C0003D07B685B2B10D06FE0002202213B4827
:100A9C0001F0A7FA01220421384801F0A2FA012240
:100AAC000821364801F09DFA64E001220221334806
:100ABC0001F097FA00220421304801F092FA012249
:100ACC0008212E4801F08DFA54E0012202212B4816
:100ADC0001F087FA01220421284801F082FA002251
:100AEC000821264801F07DFA44E03B687B2B3ED17F
:100AFC007B685C2B29D07B685C2B3ADC7B685A2B9F
:100B0C0003D07B685B2B10D033E0002210211B48F4
:100B1C0001F067FA01222021184801F062FA012243
:100B2C004021164801F05DFA24E0012210211348FF
:100B3C0001F057FA00222021104801F052FA01224C
:100B4C0040210E4801F04DFA14E0012210210B480F
:100B5C0001F047FA01222021084801F042FA002254
:100B6C004021064801F03DFA04E000BF02E000BF5E
:100B7C0000E000BF00BF0837BD4680BD0008014043
:100B8C0080B485B000AFF860B9607A60FB680D4A3C
:100B9C0082FB03129210DB17D21ABB681A60F96839
:100BAC00084B83FB01239A10CB17D21A13469B00D8
:100BBC0013445B00CA1A7B681A6000BF1437BD4629
:100BCC0080BC70476766666680B483B000AF78609F
:100BDC007B680C2B16D1294B1B68294A82FB03120C
:100BEC005211DB17D31A013B264A1360264B1B68A4
:100BFC00234A82FB03125211DB17D31A013B234AFF
:100C0C00136036E07B680D2B0BD1214B1B681C4A03
:100C1C0082FB03125211DB17D31A013B1D4A1360DE
:100C2C0027E07B680E2B16D1174B1B68144A82FBEE
:100C3C0003125211DB17D31A013B144A13600F4BEA
:100C4C001B680F4A82FB03125211DB17D31A013BAC
:100C5C000C4A13600DE07B680F2B0AD10C4B1B6800
:100C6C00074A82FB03125211DB17D31A013B094AC4
:100C7C00136000BF0C37BD4680BC704738000020A5
:100C8C001F85EB51780000204000002080000020E0
:100C9C003C0000207C00002080B500AF0B4B1B6893
:100CAC00012B11D10A4B1B68012B03D1084B0022DD
:100CBC001A6006E0064B1B68002B02D1044B012284
:100CCC001A60322000F046FD00BF80BDA00000205D
:100CDC008400002080B582B000AF786039600A4B88
:100CEC001B68012B0CD17B681B685A1E7B681A6031
:100CFC003B681B685A1E3B681A60642000F03EFD7E
:100D0C0000BF0837BD4680BDA800002080B582B06A
:100D1C0000AF78603960144B1B68002B0ED1002299
:100D2C008021124801F05DF901224FF480710F48C7
:100D3C0001F057F97868FFF735FB11E00A4B1B6897
:100D4C00012B0DD101228021084801F04AF9002223
:100D5C004FF48071054801F044F93868FFF722FB25
:100D6C0000BF0837BD4680BD84000020000801404C
:100D7C0080B582B000AF78603960154B1B68002BD2
:100D8C000FD100224FF40071124801F02AF9012210
:100D9C004FF480610F4801F024F97868FFF792FC5A
:100DAC0012E00B4B1B68012B0ED101224FF400718A
:100DBC00084801F016F900224FF48061054801F053
:100DCC0010F93868FFF77EFC00BF0837BD4680BDC0
:100DDC00840000200008014080B584B000AF0023DF
:100DEC00FB600023BB6000237B6000233B608E4BC9
:100DFC001B680B3B042B00F2128101A252F823F06A
:100E0C00210E00084B0E0008C30E00083B0F000813
:100E1C00B30F0008844B0C221A600C20FFF7D4FE91
:100E2C00824B1B68184600F081FC322000F092FCCB
:100E3C00642000F0A3FC7E4B00221A60EFE07A21C4
:100E4C005A20FFF70DFE7B215C20FFF709FE794B42
:100E5C001B68012B0AD1744B0D221A60764B1B6850
:100E6C00184600F063FC0D20FFF7AEFE734B1B68B9
:100E7C0007F1080207F10C011846FFF781FE704BD1
:100E8C001B683A46391D1846FFF77AFEFB68BA68AC
:100E9C0011461846FFF73AFF7B683A681146184628
:100EAC00FFF766FFFFF7F8FE65496448FFF712FF8E
:100EBC0000F020F9B3E07A215A20FFF7D1FD7B2115
:100ECC005B20FFF7CDFD5B4B1B68012B0AD1564B0A
:100EDC000E221A60554B1B68184600F027FC0E209A
:100EEC00FFF772FE554B1B6807F1080207F10C0166
:100EFC001846FFF745FE534B1B683A46391D1846FA
:100F0C00FFF73EFEFB68BA6811461846FFF7FEFE77
:100F1C007B683A6811461846FFF72AFFFFF7BCFEBC
:100F2C0048494648FFF7D6FE00F0E4F877E07A210E
:100F3C005C20FFF795FD7B215A20FFF791FD3D4B7F
:100F4C001B68012B0AD1384B0F221A603A4B1B68D5
:100F5C00184600F0EBFB0F20FFF736FE384B1B68F2
:100F6C0007F1080207F10C011846FFF709FE334B95
:100F7C001B683A46391D1846FFF702FEFB68BA6833
:100F8C0011461846FFF7C2FE7B683A6811461846B0
:100F9C00FFF7EEFEFFF780FE28492948FFF79AFE7F
:100FAC0000F0A8F83BE07A215B20FFF759FD7B218C
:100FBC005A20FFF755FD1F4B1B68012B0AD11A4B0A
:100FCC000C221A601C4B1B68184600F0AFFB0C205F
:100FDC00FFF7FAFD1B4B1B6807F1080207F10C0128
:100FEC001846FFF7CDFD154B1B683A46391D1846C0
:100FFC00FFF7C6FDFB68BA6811461846FFF786FE78
:10100C007B683A6811461846FFF7B2FEFFF744FEBC
:10101C000A490C48FFF75EFE00F06CF800BF00BFF9
:10102C001037BD4680BD00BF3400002040000020BA
:10103C0084000020980000203C0000207800002054
:10104C00800000207C00002080B400AF104B1B6897
:10105C00104A82FB03125211DB17D31A0E4A13608B
:10106C000E4B1B680B4A82FB03125211DB17D31A6F
:10107C000B4A13600B4B1B68064A82FB031252117E
:10108C00DB17D31A084A136000BFBD4680BC7047FB
:10109C00380000201F85EB51880000203C00002008
:1010AC008C000020400000209000002080B500AF94
:1010BC00012202210E4800F094FF012204210C4869
:1010CC0000F08FFF01220821094800F08AFF01225D
:1010DC001021074800F085FF01222021044800F070
:1010EC0080FF01224021024800F07BFF00BF80BD41
:1010FC000008014080B500AFFFF722F80346012B32
:10110C0028D1154B01221A60144B01221A60144B82
:10111C0001221A60FFF7CAFF322000F043FB114B8B
:10112C001B68522B03D10F4B53221A6012E00D4B4C
:10113C001B68532B03D10B4B54221A600AE0094B4A
:10114C001B68542B03D1074B0B221A6002E0054B92
:10115C0052221A6000BF80BD780000207C00002065
:10116C00800000203400002080B500AFFEF7FAFFAD
:10117C000346012B31D11A4B1B68522B0CD1194B46
:10118C001B680133174A1360164B1B68632B24DD55
:10119C00144B63221A6020E0114B1B68532B0CD1AB
:1011AC00114B1B680133104A13600F4B1B68632BE8
:1011BC0013DD0D4B63221A600FE0094B1B68542B97
:1011CC000BD10A4B1B680133084A1360074B1B6891
:1011DC00632B02DD054B63221A6000BF80BD00BF8C
:1011EC0034000020780000207C00002080000020CB
:1011FC0080B500AFFEF7C8FF0346012B22D1124B7E
:10120C001B68522B07D1114B1B68642202FB03F3A2
:10121C000F4A136016E00C4B1B68532B07D10D4B78
:10122C001B68642202FB03F30B4A13600AE0064BB3
:10123C001B68542B06D1094B1B68642202FB03F379
:10124C00074A136000BF80BD3400002078000020E6
:10125C00380000207C0000203C0000208000002092
:10126C004000002080B500AF084B1B68012B0AD151
:10127C00322000F097FA0221054800F0CAFE102136
:10128C00034800F0C6FE00BF80BD00BFB0000020C8
:10129C000008014080B500AF084B1B68012B0AD138
:1012AC00322000F07FFA0421054800F0B2FE202124
:1012BC00034800F0AEFE00BF80BD00BFB0000020B0
:1012CC000008014080B500AF084B1B68012B0AD108
:1012DC00322000F067FA0821054800F09AFE402100
:1012EC00034800F096FE00BF80BD00BFB000002098
:1012FC000008014080B485B000AF394B1B68394AF7
:10130C0082FB03125211DB17D31AFB60364B1B689E
:10131C00344A82FB03125211DB17D31ABB60334BD6
:10132C001B68304A82FB03125211DB17D31A7B6005
:10133C00FB68012B05D0BB68012B02D07B68012B0D
:10134C0009D12B4B1B68FB602A4B1B68BB602A4BDB
:10135C001B687B602DE0BA687B681344FA689A427C
:10136C0004DABA687B681344FB6018E0BA687B68DF
:10137C001344FA689A4212DD1E4B1B68BA689A42F3
:10138C0004D1FA687B68D31ABB6008E01A4B1B685F
:10139C007A689A4203D1FA68BB68D31A7B60BA6840
:1013AC007B689A4205DDBB683B607B68BB603B6831
:1013BC007B60FB68642202FB03F3094A1360BB6881
:1013CC00642202FB03F3084A13607B68642202FB6D
:1013DC0003F3064A136000BF1437BD4680BC704748
:1013EC00380000201F85EB513C00002040000020FD
:1013FC00880000208C0000209000002080B582B076
:10140C0000AF00237B6000233B60344B1B68542BE4
:10141C0040D0542B5CDC522B02D0532B1ED057E007
:10142C00FFF712FEFFF71EFF2D4B1B683A46391DC6
:10143C001846FFF7A5FB02210020FFF767FC7B682D
:10144C003A6811461846FFF793FCFFF725FCFFF7A7
:10145C0051FEFFF789FEFFF7CBFE3AE0FFF71AFFCC
:10146C00204B1B683A46391D1846FFF789FB0321B0
:10147C000020FFF74BFC7B683A6811461846FFF7D3
:10148C0077FCFFF709FCFFF735FEFFF76DFEFFF762
:10149C00AFFE1EE0FFF716FF134B1B683A46391DD3
:1014AC001846FFF76DFB04210020FFF72FFC7B682B
:1014BC003A6811461846FFF75BFCFFF7EDFBFFF7A8
:1014CC0019FEFFF751FEFFF793FEFFF713FF00E045
:1014DC0000BF00BF0837BD4680BD00BF34000020F0
:1014EC00780000207C0000208000002080B500AF38
:1014FC0000F076FA00F00EF800F094F800F046F8E0
:10150C00034801F0CBF9FFF767FCFFF777FFFAE729
:10151C00B400002080B590B000AF07F1180328226A
:10152C000021184601F076FD3B1D00221A605A601E
:10153C009A60DA601A610223BB610123BB6210233B
:10154C00FB6200237B6307F11803184600F07AFD59
:10155C000346002B01D000F0E3F80F237B6000233F
:10156C00BB600023FB6000233B6100237B613B1DC0
:10157C000021184600F0E6FF0346002B01D000F0D6
:10158C00CFF800BF4037BD4680BD000080B586B0A7
:10159C0000AF07F1080300221A605A609A60DA6003
:1015AC003B4600221A605A601D4B4FF080421A6075
:1015BC001B4B41F63F725A60194B00229A60184B34
:1015CC000922DA60164B00221A61154B00229A612F
:1015DC00134801F013F90346002B01D000F0A0F8DA
:1015EC004FF48053BB6007F1080319460C4801F017
:1015FC00A9FA0346002B01D000F092F800233B60BF
:10160C0000237B603B461946054801F075FC0346F8
:10161C00002B01D000F084F800BF1837BD4680BD08
:10162C00B400002080B588B000AF07F11003002291
:10163C001A605A609A60DA602F4B9B692E4A43F00D
:10164C00100393612C4B9B6903F01003FB60FB6848
:10165C00294B9B69284A43F004039361264B9B69F1
:10166C0003F00403BB60BB68234B9B69224A43F025
:10167C0008039361204B9B6903F008037B607B6834
:10168C00002240F2FE711D4800F0ABFC002243F634
:10169C00FF711B4800F0A5FC4FF460433B61002335
:1016AC007B610123BB6107F110031946154800F05B
:1016BC0007FB40F2FE733B6101237B610023BB619E
:1016CC000223FB6107F1100319460C4800F0F8FAED
:1016DC0043F6FF733B6101237B610023BB61022353
:1016EC00FB6107F110031946054800F0E9FA00BF49
:1016FC002037BD4680BD00BF0010024000080140ED
:10170C00000C01400010014080B582B000AF786041
:10171C0000F05CF8FEF76CFD00BF0837BD4680BDDD
:10172C0080B400AF72B600BFFEE7000080B483B097
:10173C0000AF7860054A7B681360054B00221A6085
:10174C0000BF0C37BD4680BC704700BF9400002022
:10175C009800002080B483B000AF7860054A7B68A5
:10176C001360054B00221A6000BF0C37BD4680BCCD
:10177C00704700BF9C000020A000002080B483B004
:10178C0000AF7860054A7B681360054B00221A6035
:10179C0000BF0C37BD4680BC704700BFA4000020C2
:1017AC00A800002080B483B000AF7860054A7B6845
:1017BC001360054B00221A6000BF0C37BD4680BC7D
:1017CC00704700BFAC000020B000002080B400AF18
:1017DC00214B1B68002B0BDD1F4B1B68013B1E4A6A
:1017EC0013601D4B1B68002B02D11C4B01221A608D
:1017FC001B4B1B68002B0BDD194B1B68013B184A5C
:10180C001360174B1B68002B02D1164B01221A6078
:10181C00154B1B68002B0BDD134B1B68013B124A4D
:10182C001360114B1B68002B02D1104B01221A6064
:10183C000F4B1B68002B0BDD0D4B1B68013B0C4A3F
:10184C0013600B4B1B68002B02D10A4B01221A6050
:10185C0000BFBD4680BC704794000020980000205B
:10186C009C000020A0000020A4000020A800002064
:10187C00AC000020B000002080B485B000AF154B48
:10188C009B69144A43F001039361124B9B6903F06B
:10189C000103BB60BB680F4BDB690E4A43F08053FE
:1018AC00D3610C4BDB6903F080537B607B680A4B84
:1018BC005B68FB60FB6823F0E063FB60FB6843F054
:1018CC008063FB60044AFB68536000BF1437BD465D
:1018DC0080BC7047001002400000014080B584B00D
:1018EC0000AF78607B681B68B3F1804F13D10C4B51
:1018FC00DB690B4A43F00103D361094BDB6903F04D
:10190C000103FB60FB68002200211C2000F0A1F900
:10191C001C2000F0BAF900BF1037BD4680BD00BFD7
:10192C000010024080B400AFFEE780B400AFFEE7C9
:10193C0080B400AFFEE780B400AFFEE780B400AF28
:10194C00FEE780B400AF00BFBD4680BC704780B4DA
:10195C0000AF00BFBD4680BC704780B400AF00BF75
:10196C00BD4680BC704780B500AF00F07FF800BF6B
:10197C0080BD000080B500AF024800F0DBFF00BF67
:10198C0080BD00BFB400002080B400AF00BFBD46D6
:10199C0080BC7047FFF7F8FF0B480C490C4A00233A
:1019AC0002E0D458C4500433C4188C42F9D3094A09
:1019BC00094C002301E013600432A242FBD301F076
:1019CC0005FBFFF793FD704700000020500000203E
:1019DC00743000085000002000010020FEE70000D9
:1019EC0080B500AF084B1B68074A43F01003136027
:1019FC00032000F023F90F2000F008F8FFF73CFF5C
:101A0C000023184680BD00BF0020024080B582B084
:101A1C0000AF7860124B1A68124B1B7819464FF4C2
:101A2C007A73B3FBF1F3B2FBF3F3184600F03BF916
:101A3C000346002B01D001230EE07B680F2B0AD844
:101A4C00002279684FF0FF3000F003F9064A7B68FA
:101A5C001360002300E0012318460837BD4680BD03
:101A6C00440000204C0000204800002080B400AF4F
:101A7C00054B1B781A46054B1B681344034A13602D
:101A8C0000BFBD4680BC70474C000020FC0000200D
:101A9C0080B400AF024B1B681846BD4680BC704733
:101AAC00FC00002080B485B000AF78607B6803F048
:101ABC000703FB600C4BDB68BB60BA684FF6FF0397
:101ACC001340BB60FB681A02BB68134343F0BF634F
:101ADC0043F40033BB60044ABB68D36000BF1437C7
:101AEC00BD4680BC704700BF00ED00E080B400AF85
:101AFC00044BDB681B0A03F007031846BD4680BC89
:101B0C00704700BF00ED00E080B483B000AF034627
:101B1C00FB7197F90730002B0BDBFB7903F01F02ED
:101B2C00064997F907305B09012000FA02F241F8E7
:101B3C00232000BF0C37BD4680BC704700E100E09D
:101B4C0080B483B000AF03463960FB7197F907305E
:101B5C00002B0ADB3B68DAB20C4997F9073012010B
:101B6C00D2B20B4483F800230AE03B68DAB208498E
:101B7C00FB7903F00F03043B1201D2B20B441A762B
:101B8C0000BF0C37BD4680BC704700BF00E100E0D1
:101B9C0000ED00E080B489B000AFF860B9607A6005
:101BAC00FB6803F00703FB61FB69C3F10703042B1C
:101BBC0028BF0423BB61FB690433062B02D9FB69E4
:101BCC00033B00E000237B614FF0FF32BB6902FA5C
:101BDC0003F3DA43BB681A407B699A404FF0FF313C
:101BEC007B6901FA03F3D9437B680B401343184616
:101BFC002437BD4680BC704780B582B000AF78609A
:101C0C007B68013BB3F1807F01D301230FE00A4ACB
:101C1C007B68013B53600F214FF0FF30FFF790FFC3
:101C2C00054B00229A60044B07221A6000231846C9
:101C3C000837BD4680BD00BF10E000E080B582B023
:101C4C0000AF78607868FFF72DFF00BF0837BD46FE
:101C5C0080BD80B586B000AF0346B9607A60FB7377
:101C6C0000237B61FFF742FF78617A68B968786975
:101C7C00FFF790FF024697F90F3011461846FFF711
:101C8C005FFF00BF1837BD4680BD80B582B000AF86
:101C9C000346FB7197F907301846FFF735FF00BF75
:101CAC000837BD4680BD80B582B000AF78607868DB
:101CBC00FFF7A2FF034618460837BD4680BD00005B
:101CCC0080B48BB000AF7860396000237B62002356
:101CDC003B6248E101227B6A02FA03F3FB613B6839
:101CEC001B68FA691340BB61BA69FB699A4240F000
:101CFC0037813B685B68A34A93425ED0A14A93420A
:101D0C0075D8A14A934258D09F4A93426FD89F4AA4
:101D1C00934252D09D4A934269D89D4A93424CD0EB
:101D2C009B4A934263D89B4A934246D0994A93422A
:101D3C005DD8122B2AD8122B59D801A252F823F0B5
:101D4C00C71D0008A11D0008B31D0008F51D0008E3
:101D5C00FB1D0008FB1D0008FB1D0008FB1D0008F7
:101D6C00FB1D0008FB1D0008FB1D0008FB1D0008E7
:101D7C00FB1D0008FB1D0008FB1D0008FB1D0008D7
:101D8C00FB1D0008A91D0008BD1D0008824A9342D6
:101D9C0013D02CE03B68DB683B6229E03B68DB68D6
:101DAC0004333B6224E03B68DB6808333B621FE092
:101DBC003B68DB680C333B621AE03B689B68002B8A
:101DCC0002D104233B6213E03B689B68012B05D1D5
:101DDC0008233B627B68FA691A6109E008233B62BD
:101DEC007B68FA695A6103E000233B6200E000BFA4
:101DFC00BB69FF2B01D87B6801E07B6804337B61F6
:101E0C00BB69FF2B02D87B6A9B0002E07B6A083B14
:101E1C009B003B617B691A680F213B6901FA03F354
:101E2C00DB431A40396A3B6901FA03F31A437B69B5
:101E3C001A603B685B6803F08053002B00F09080C5
:101E4C00564B9B69554A43F001039361534B9B6975
:101E5C0003F00103BB60BB68514A7B6A9B080233E9
:101E6C0052F82330FB607B6A03F003039B000F22C4
:101E7C0002FA03F3DB43FA681340FB607B68494AC0
:101E8C0093420DD07B68484A934207D07B68474AFF
:101E9C00934201D1022304E0032302E0012300E07A
:101EAC0000237A6A02F0030292009340FA6813430B
:101EBC00FB603B497B6A9B080233FA6841F823209C
:101ECC003B685B6803F48013002B06D0384B9A6890
:101EDC003749BB6913438B6006E0354B9A68BB6985
:101EEC00DB43334913408B603B685B6803F400139E
:101EFC00002B06D02E4BDA682D49BB691343CB60FF
:101F0C0006E02B4BDA68BB69DB4329491340CB60F5
:101F1C003B685B6803F40033002B06D0244B5A68F3
:101F2C002349BB6913434B6006E0214B5A68BB69DC
:101F3C00DB431F4913404B603B685B6803F4803301
:101F4C00002B06D01A4B1A681949BB6913430B6056
:101F5C0006E0174B1A68BB69DB43154913400B604D
:101F6C007B6A01337B623B681A687B6A22FA03F353
:101F7C00002B7FF4AFAE00BF00BF2C37BD4680BC3A
:101F8C00704700BF0000321000003110000022101A
:101F9C00000021100000121000001110001002406F
:101FAC000000014000080140000C014000100140FD
:101FBC000004014080B485B000AF78600B467B8094
:101FCC007B689A687B881340002B02D00123FB733B
:101FDC0001E00023FB73FB7B18461437BD4680BC25
:101FEC00704780B483B000AF78600B467B8013469B
:101FFC007B707B78002B03D07A887B681A6103E0B6
:10200C007B881A047B681A6100BF0C37BD4680BC04
:10201C00704780B485B000AF78600B467B807B68DE
:10202C00DB68FB607A88FB6813401A04FB68D943B1
:10203C007B880B401A437B681A6100BF1437BD467E
:10204C0080BC704780B586B000AF78607B68002B91
:10205C0001D101236CE27B681B6803F00103002BA8
:10206C0000F08780924B5B6803F00C03042B0CD0C0
:10207C008F4B5B6803F00C03082B12D18C4B5B6805
:10208C0003F48033B3F5803F0BD1894B1B6803F409
:10209C000033002B6CD07B685B68002B68D101236C
:1020AC0046E27B685B68B3F5803F06D1804B1B68CA
:1020BC007F4A43F4803313602EE07B685B68002B0F
:1020CC000CD17B4B1B687A4A23F480331360784B1A
:1020DC001B68774A23F4802313601DE07B685B68E0
:1020EC00B3F5A02F0CD1724B1B68714A43F48023BB
:1020FC0013606F4B1B686E4A43F4803313600BE024
:10210C006B4B1B686A4A23F480331360684B1B6863
:10211C00674A23F4802313607B685B68002B13D021
:10212C00FFF7B6FC386108E0FFF7B2FC02463B69EA
:10213C00D31A642B01D90323FAE15D4B1B6803F41A
:10214C000033002BF0D014E0FFF7A2FC386108E05C
:10215C00FFF79EFC02463B69D31A642B01D903237B
:10216C00E6E1534B1B6803F40033002BF0D100E085
:10217C0000BF7B681B6803F00203002B63D04C4B41
:10218C005B6803F00C03002B0BD0494B5B6803F02E
:10219C000C03082B1CD1464B5B6803F48033002BDB
:1021AC0016D1434B1B6803F00203002B05D07B6850
:1021BC001B69012B01D00123BAE13D4B1B6823F0B5
:1021CC00F8027B685B69DB00394913430B603AE02A
:1021DC007B681B69002B20D0364B01221A60FFF75D
:1021EC0057FC386108E0FFF753FC02463B69D31AF1
:1021FC00022B01D903239BE12D4B1B6803F0020337
:10220C00002BF0D02A4B1B6823F0F8027B685B692B
:10221C00DB00274913430B6015E0264B00221A60A4
:10222C00FFF736FC386108E0FFF732FC02463B69E9
:10223C00D31A022B01D903237AE11D4B1B6803F03F
:10224C000203002BF0D17B681B6803F00803002B02
:10225C003AD07B689B69002B19D0174B01221A606E
:10226C00FFF716FC386108E0FFF712FC02463B69E9
:10227C00D31A022B01D903235AE10D4B5B6A03F0ED
:10228C000203002BF0D0012000F09AFA1CE00A4B5C
:10229C0000221A60FFF7FCFB38610FE0FFF7F8FB38
:1022AC0002463B69D31A022B08D9032340E100BF35
:1022BC000010024000004242800442429E4B5B6A86
:1022CC0003F00203002BE9D17B681B6803F00403C5
:1022DC00002B00F0A6800023FB75974BDB6903F005
:1022EC008053002B0DD1944BDB69934A43F0805300
:1022FC00D361914BDB6903F08053BB60BB68012356
:10230C00FB758E4B1B6803F48073002B18D18B4B21
:10231C001B688A4A43F480731360FFF7B9FB38617A
:10232C0008E0FFF7B5FB02463B69D31A642B01D9D1
:10233C000323FDE0814B1B6803F48073002BF0D06A
:10234C007B68DB68012B06D17B4B1B6A7A4A43F016
:10235C00010313622DE07B68DB68002B0CD1764BFC
:10236C001B6A754A23F001031362734B1B6A724A92
:10237C0023F0040313621CE07B68DB68052B0CD193
:10238C006D4B1B6A6C4A43F0040313626A4B1B6A65
:10239C00694A43F0010313620BE0674B1B6A664A00
:1023AC0023F001031362644B1B6A634A23F004039A
:1023BC0013627B68DB68002B15D0FFF769FB386173
:1023CC000AE0FFF765FB02463B69D31A41F28832FB
:1023DC00934201D90323ABE0574B1B6A03F0020372
:1023EC00002BEED014E0FFF753FB38610AE0FFF747
:1023FC004FFB02463B69D31A41F28832934201D912
:10240C00032395E04C4B1B6A03F00203002BEED127
:10241C00FB7D012B05D1484BDB69474A23F08053E8
:10242C00D3617B68DB69002B00F08180424B5B68D9
:10243C0003F00C03082B61D07B68DB69022B46D1BF
:10244C003F4B00221A60FFF723FB386108E0FFF7CF
:10245C001FFB02463B69D31A022B01D9032367E009
:10246C00354B1B6803F00073002BF0D17B681B6AA3
:10247C00B3F5803F08D1304B5B6823F400327B68A6
:10248C009B682D4913434B602B4B5B6823F47412F0
:10249C007B68196A7B685B6A0B43274913434B6063
:1024AC00274B01221A60FFF7F3FA386108E0FFF7B7
:1024BC00EFFA02463B69D31A022B01D9032337E00A
:1024CC001D4B1B6803F00073002BF0D02FE01C4B4E
:1024DC0000221A60FFF7DCFA386108E0FFF7D8FA3F
:1024EC0002463B69D31A022B01D9032320E0124B7D
:1024FC001B6803F00073002BF0D118E07B68DB69DC
:10250C00012B01D1012313E00B4B5B68FB60FB68D3
:10251C0003F480327B681B6A9A4206D1FB6803F491
:10252C0070127B685B6A9A4201D0012300E00023A1
:10253C0018461837BD4680BD0010024000700040A0
:10254C006000424280B584B000AF786039607B682F
:10255C00002B01D10123D0E06A4B1B6803F0070369
:10256C003A689A4210D9674B1B6823F007026549F9
:10257C003B6813430B60634B1B6803F007033A681B
:10258C009A4201D00123B8E07B681B6803F0020378
:10259C00002B20D07B681B6803F00403002B05D0B4
:1025AC00594B5B68584A43F4E06353607B681B6883
:1025BC0003F00803002B05D0534B5B68524A43F4DD
:1025CC0060535360504B5B6823F0F0027B689B6850
:1025DC004D4913434B607B681B6803F00103002BD0
:1025EC0040D07B685B68012B07D1474B1B6803F419
:1025FC000033002B15D101237FE07B685B68022B35
:10260C0007D1414B1B6803F00073002B09D1012348
:10261C0073E03D4B1B6803F00203002B01D1012337
:10262C006BE0394B5B6823F003027B685B683649CF
:10263C0013434B60FFF72CFAF8600AE0FFF728FA17
:10264C000246FB68D31A41F28832934201D9032324
:10265C0053E02D4B5B6803F00C027B685B689B00BE
:10266C009A42EBD1274B1B6803F007033A689A4256
:10267C0010D2244B1B6823F0070222493B681343FA
:10268C000B60204B1B6803F007033A689A4201D099
:10269C00012332E07B681B6803F00403002B08D095
:1026AC00194B5B6823F4E0627B68DB6816491343C3
:1026BC004B607B681B6803F00803002B09D0124B9E
:1026CC005B6823F460527B681B69DB000E49134383
:1026DC004B6000F021F802460B4B5B681B0903F0C2
:1026EC000F030A49CB5C22FA03F3094A1360094B26
:1026FC001B681846FFF78AF9002318461037BD46A9
:10270C0080BD00BF0020024000100240483000088D
:10271C00440000204800002080B487B000AF0023A4
:10272C00FB600023BB6000237B6100237B600023E4
:10273C003B611E4B5B68FB60FB6803F00C03042BD6
:10274C0002D0082B03D027E0194B3B6127E0FB6834
:10275C009B0C03F00F03174AD35C7B60FB6803F4FC
:10276C008033002B10D0114B5B685B0C03F0010322
:10277C00114AD35CBB607B680D4A02FB03F2BB6859
:10278C00B2FBF3F37B6104E07B680C4A02FB03F3BE
:10279C007B617B693B6102E0054B3B6100BF3B69A0
:1027AC0018461C37BD4680BC704700BF0010024065
:1027BC0000127A00583000086830000800093D000B
:1027CC0080B485B000AF78600A4B1B680A4AA2FB44
:1027DC0003235B0A7A6802FB03F3FB6000BFFB6810
:1027EC005A1EFA60002BF9D100BF00BF1437BD464A
:1027FC0080BC704744000020D34D621080B582B07D
:10280C0000AF78607B68002B01D1012341E07B682D
:10281C0093F83D30DBB2002B06D17B68002283F8A5
:10282C003C207868FFF75AF87B68022283F83D2039
:10283C007B681A687B6804331946104600F06EFA00
:10284C007B68012283F846207B68012283F83E20B6
:10285C007B68012283F83F207B68012283F84020AB
:10286C007B68012283F841207B68012283F8422097
:10287C007B68012283F843207B68012283F8442083
:10288C007B68012283F845207B68012283F83D2078
:10289C00002318460837BD4680BD000080B485B0C3
:1028AC0000AF78607B6893F83D30DBB2012B01D030
:1028BC00012335E07B68022283F83D207B681B688E
:1028CC00DA687B681B6842F00102DA607B681B687F
:1028DC00164A934209D07B681B68B3F1804F04D031
:1028EC007B681B68124A934211D17B681B689B68FA
:1028FC0003F00703FB60FB68062B10D07B681B689A
:10290C001A687B681B6842F001021A6007E07B685A
:10291C001B681A687B681B6842F001021A6000236E
:10292C0018461437BD4680BC704700BF002C0140D0
:10293C000004004080B582B000AF78607B681B68F3
:10294C001B6903F00203022B22D17B681B68DB6836
:10295C0003F00203022B1BD17B681B686FF0020291
:10296C001A617B6801221A777B681B689B6903F0EC
:10297C000303002B03D0786800F0B4F905E0786805
:10298C0000F0A7F9786800F0B6F97B6800221A7796
:10299C007B681B681B6903F00403042B22D17B6842
:1029AC001B68DB6803F00403042B1BD17B681B68DA
:1029BC006FF004021A617B6802221A777B681B682D
:1029CC009B6903F44073002B03D0786800F08AF9FC
:1029DC0005E0786800F07DF9786800F08CF97B6888
:1029EC0000221A777B681B681B6903F00803082B0D
:1029FC0022D17B681B68DB6803F00803082B1BD112
:102A0C007B681B686FF008021A617B6804221A77D6
:102A1C007B681B68DB6903F00303002B03D0786829
:102A2C0000F060F905E0786800F053F9786800F080
:102A3C0062F97B6800221A777B681B681B6903F0BC
:102A4C001003102B22D17B681B68DB6803F010038A
:102A5C00102B1BD17B681B686FF010021A617B680E
:102A6C0008221A777B681B68DB6903F44073002B20
:102A7C0003D0786800F036F905E0786800F029F9A1
:102A8C00786800F038F97B6800221A777B681B683D
:102A9C001B6903F00103012B0ED17B681B68DB68FB
:102AAC0003F00103012B07D17B681B686FF0010257
:102ABC001A617868FEF728FE7B681B681B6903F0B7
:102ACC008003802B0ED17B681B68DB6803F08003CE
:102ADC00802B07D17B681B686FF080021A617868C5
:102AEC0000F06BFA7B681B681B6903F04003402BFA
:102AFC000ED17B681B68DB6803F04003402B07D1C9
:102B0C007B681B686FF040021A61786800F0FCF873
:102B1C007B681B681B6903F02003202B0ED17B689C
:102B2C001B68DB6803F02003202B07D17B681B6834
:102B3C006FF020021A61786800F036FA00BF08378F
:102B4C00BD4680BD80B584B000AF7860396000238D
:102B5C00FB737B6893F83C30012B01D10223B4E06A
:102B6C007B68012283F83C207B68022283F83D209D
:102B7C007B681B689B68BB60BB6823F07703BB60FA
:102B8C00BB6823F47F43BB607B681B68BA689A60A0
:102B9C003B681B68B3F5005F3ED0B3F5005F00F2F5
:102BAC008780B3F5805F00F08680B3F5805F7FD8B7
:102BBC00702B1AD0702B7BD8602B50D0602B77D811
:102BCC00502B3CD0502B73D8402B58D0402B6FD867
:102BDC00302B64D0302B6BD8202B60D0202B67D8B7
:102BEC00002B5CD0102B5AD062E07B6818683B68D5
:102BFC0099683B685A683B68DB6800F05EF97B6853
:102C0C001B689B68BB60BB6843F07703BB607B6849
:102C1C001B68BA689A604FE07B6818683B689968D3
:102C2C003B685A683B68DB6800F047F97B681B68B7
:102C3C009A687B681B6842F480429A603CE07B682F
:102C4C0018683B6859683B68DB681A4600F0BEF8A8
:102C5C007B681B685021184600F015F92CE07B6846
:102C6C0018683B6859683B68DB681A4600F0DCF86A
:102C7C007B681B686021184600F005F91CE07B6836
:102C8C0018683B6859683B68DB681A4600F09EF888
:102C9C007B681B684021184600F0F5F80CE07B6857
:102CAC001A683B681B681946104600F0ECF803E004
:102CBC000123FB7300E000BF7B68012283F83D20F9
:102CCC007B68002283F83C20FB7B18461037BD46FE
:102CDC0080BD80B483B000AF786000BF0C37BD46B8
:102CEC0080BC704780B483B000AF786000BF0C37F5
:102CFC00BD4680BC704780B483B000AF786000BF25
:102D0C000C37BD4680BC704780B483B000AF786090
:102D1C0000BF0C37BD4680BC7047000080B485B046
:102D2C0000AF786039607B681B68FB607B68254A64
:102D3C00934207D07B68B3F1804F03D07B68224A63
:102D4C00934208D1FB6823F07003FB603B685B681F
:102D5C00FA681343FB607B681A4A934207D07B687E
:102D6C00B3F1804F03D07B68174A934208D1FB68BC
:102D7C0023F44073FB603B68DB68FA681343FB6029
:102D8C00FB6823F080023B685B691343FB607B6844
:102D9C00FA681A603B689A687B68DA623B681A6862
:102DAC007B689A627B68074A934203D13B681A6935
:102DBC007B681A637B6801225A6100BF1437BD46D9
:102DCC0080BC7047002C01400004004080B487B0E8
:102DDC0000AFF860B9607A60FB681B6A7B61FB68C6
:102DEC001B6A23F00102FB681A62FB689B693B615A
:102DFC003B6923F0F0033B617B681B013A69134389
:102E0C003B617B6923F00A037B617A69BB681343DE
:102E1C007B61FB683A699A61FB687A691A6200BF48
:102E2C001C37BD4680BC704780B487B000AFF860DB
:102E3C00B9607A60FB681B6A7B61FB681B6A23F0D4
:102E4C001002FB681A62FB689B693B613B6923F4C7
:102E5C0070433B617B681B033A6913433B617B699D
:102E6C0023F0A0037B61BB681B017A6913437B6170
:102E7C00FB683A699A61FB687A691A6200BF1C3771
:102E8C00BD4680BC704780B485B000AF78603960B7
:102E9C007B689B68FB60FB6823F07003FB603A68FF
:102EAC00FB68134343F00703FB607B68FA689A6086
:102EBC0000BF1437BD4680BC704780B487B000AFEC
:102ECC00F860B9607A603B60FB689B687B617B69EA
:102EDC0023F47F437B613B681A027B681A43BB680F
:102EEC0013437A6913437B61FB687A699A6000BF6C
:102EFC001C37BD4680BC704780B485B000AF78608D
:102F0C0039607B6893F83C30012B01D1022341E0FE
:102F1C007B68012283F83C207B68022283F83D20E9
:102F2C007B681B685B68FB607B681B689B68BB608D
:102F3C00FB6823F07003FB603B681B68FA68134363
:102F4C00FB607B681B68FA685A607B681B68144AD4
:102F5C00934209D07B681B68B3F1804F04D07B6827
:102F6C001B68104A93420CD1BB6823F08003BB60F2
:102F7C003B685B68BA681343BB607B681B68BA68C4
:102F8C009A607B68012283F83D207B68002283F8DD
:102F9C003C20002318461437BD4680BC704700BF48
:102FAC00002C01400004004080B483B000AF786076
:102FBC0000BF0C37BD4680BC704780B483B000AFF7
:102FCC00786000BF0C37BD4680BC704770B50026DA
:102FDC000C4D0D4C641BA410A64209D100F022F834
:102FEC0000260A4D0A4C641BA410A64205D170BDE4
:102FFC0055F8043B98470136EEE755F8043B9847E3
:10300C000136F2E76C3000086C3000086C300008B8
:10301C007030000803460244934200D1704703F815
:10302C00011BF9E7F8B500BFF8BC08BC9E46704719
:0C303C00F8B500BFF8BC08BC9E46704709
:103048000000000000000000010203040607080950
:1030580002030405060708090A0B0C0D0E0F1010D1
:043068000102000061
:04306C003101000826
:043070000D01000846
:103074000100000001000000010000000100000048
:103084000100000001000000010000000100000038
:103094000100000001000000010000000100000028
:1030A400C80000000B000000F4010000C80000008C
:1030B4002C0100000024F4001000000001000000B6
:04000005080019A135
:00000001FF
